S01800006275696C642F6D6963617A2F6D61696E2E73726563E5
S11300000C945E010C940F070C9419070C942307AD
S11300100C942D070C9437070C9441070C94610E33
S11300200C944B070C947D010C947D010C942B10C3
S11300300C94031C0C94D9060C94EF060C94140B2A
S11300400C94C8060C946F130C9412090C947D0143
S11300500C948E090C947D010C947D010C947D010B
S11300600C94E4060C94E10A0C94C00A0C94CB0A98
S11300700C94D60A0C94F40A0C94A30A0C947D01F3
S11300800C94B50A0C947D010C947D01F1131714A2
S1130090291477147D14CE14E914EF142815E315EC
S11300A006161A169C17CF171C1845182A193B193F
S11300B03F1942194A19000021104220633084403C
S11300C0A550C660E770088129914AA16BB18CC123
S11300D0ADD1CEE1EFF13112100273325222B5529A
S11300E09442F772D662399318837BB35AA3BDD373
S11300F09CC3FFF3DEE36224433420040114E6646A
S1130100C774A44485546AA54BB528850995EEE5C2
S1130110CFF5ACC58DD55336722611163006D77679
S1130120F6669556B4465BB77AA719973887DFF712
S1130130FEE79DD7BCC7C448E5588668A778400841
S1130140611802282338CCC9EDD98EE9AFF9488962
S113015069990AA92BB9F55AD44AB77A966A711AD9
S1130160500A333A122AFDDBDCCBBFFB9EEB799BB2
S1130170588B3BBB1AABA66C877CE44CC55C222C29
S1130180033C600C411CAEED8FFDECCDCDDD2AAD02
S11301900BBD688D499D977EB66ED55EF44E133EB9
S11301A0322E511E700E9FFFBEEFDDDFFCCF1BBF52
S11301B03AAF599F788F8891A981CAB1EBA10CD12C
S11301C02DC14EF16FE18010A100C230E320045034
S11301D0254046706760B9839893FBA3DAB33DC3A7
S11301E01CD37FE35EF3B1029012F322D232354284
S11301F0145277625672EAB5CBA5A89589856EF537
S11302004FE52CD50DC5E234C324A01481046674D3
S1130210476424540544DBA7FAB79987B8975FE786
S11302207EF71DC73CD7D326F2369106B016576623
S11302307676154634564CD96DC90EF92FE9C8990E
S1130240E9898AB9ABA94458654806782768C01873
S1130250E1088238A3287DCB5CDB3FEB1EFBF98BE6
S1130260D89BBBAB9ABB754A545A376A167AF10AC3
S1130270D01AB32A923A2EFD0FED6CDD4DCDAABDF6
S11302808BADE89DC98D267C076C645C454CA23C13
S1130290832CE01CC10C1FEF3EFF5DCF7CDF9BAFC6
S11302A0BABFD98FF89F176E367E554E745E932E63
S11302B0B23ED10EF01E00081C18141011241FBEEB
S11302C0CFEFD0E1DEBFCDBF11E0A0E0B1E0E4EAC2
S11302D0FDE300E00BBF02C007900D92A431B1070B
S11302E0D9F712E0A4E1B1E001C01D92A03FB1072B
S11302F0E1F70E94E3190C94D11E0C9400008FB70F
S1130300F894992708958FBF0895FC018281992755
S1130310582F442781819927482B592BCA01892FAB
S1130320992786958695837090708230910559F04F
S11303308330910559F0892B19F420E030E008C08E
S11303402CE93FEF05C022E030E002C028E030E0B5
S1130350CA0184E0989F812D992711248230910548
S113036059F08330910559F0892B19F480E090E01D
S113037008C08CE99FEF05C082E090E002C088E0ED
S113038090E0280F391F2A5F3F4FCF01820F931F40
S11303900895282F9FB7F894662349F0E82FFF2784
S11303A0EC59FD4F8081882311F021E006C0E22F33
S11303B0FF27EC59FD4F608320E0892F99278FBFD9
S11303C0822F99270895E82F8FB7F894282F332781
S11303D090E0FF27EC59FD4F8081861709F491E0E6
S11303E02FBF892F99270895882311F06E9A0895B5
S11303F06E980895882311F06F9A08956F98089560
S113040080E00E94F401BA9ABB98B99AB89A6C9A9F
S113041080E00E94FA016B986A9881E00E94F401DE
S1130420709A8DB18C7F8DB908950F931F93CF93DC
S1130430DF93182F8FB7F894C82FDD270C2F61E0B6
S113044080E00E94C901882321F0CFBF85E090E0BD
S113045024C0809106018823A1F480911A0182307E
S113046081F409C082E080931A01109206010E946F
S11304700002B89AC0981093030180E00FBF992737
S11304800CC080911A01882369F38FB7F8949927D7
S1130490109264028FBF81E0F1CFDF91CF911F9161
S11304A00F910895282F9FB7F894E82FFF27EB5753
S11304B0FE4F80818F3F81F4E091EA02E21771F4EC
S11304C00BC02093D80204C0FF27EB57FE4F2083B4
S11304D02093EA0220E007C025E005C08091D802FD
S11304E08F3F91F7EECF892F99278FBF822F9927BE
S11304F008951F93182F81E00E94F4011FB9779B80
S1130500FECF8FB199271F910895FF920F931F93E8
S1130510CF93DF93F82E8B018FB7F894C82FDD2784
S113052060E080E00E94E301882321F0CFBF80E0F7
S113053090E00CC0CFBF8F2D0E947902812F9927A4
S11305400E947902802F0E9479029927DF91CF912E
S11305501F910F91FF9008958F929F92AF92BF9237
S1130560CF92DF92EF92FF920F931F93CF93DF937B
S11305708FB7F8949927C090E202D090E30280905C
S1130580590290905A02C091DD01D091DE01209170
S1130590350130913601FAE0AF2EB12CAC0EBD1E00
S11305A02A153B0508F459018FBF7401EC0EFD1E9A
S11305B086010C0F1D1F14C0C114D10419F0F801D9
S11305C0808101C080E00E9479028114910411F0BD
S11305D0F701808321960894E11CF11C0F5F1F4FE3
S11305E0C5010197C817D90738F381E00E94FA01C1
S11305F09FB7F894C114D10431F0CC0EDD1EF6017E
S113060080818FB901C01FB8D093DE01C093DD0192
S1130610892F99278FBF80E090E0DF91CF911F91C0
S11306200F91FF90EF90DF90CF90BF90AF909F908D
S11306308F9008952FB7F894332750933601409341
S113064035019093E3028093E20270935A0260931F
S113065059021092DE011092DD012FBF452B29F0C3
S11306608FB10E94AC029927089589E00E9452023A
S113067080E090E008958FB7F8949927109266026D
S11306808FBF08958FB7F894282F3327922F809126
S11306905C028A3041F08091A601843021F02FBFA2
S11306A089E090E008959FBF80E10E94520280E0BB
S11306B090E0089580915C028A3021F48091A60133
S11306C0843021F081E080932101089581E10E942A
S11306D052021092210108952FB7F89433278CB950
S11306E05E9A2FBF0895FC016115710519F481E02C
S11306F090E008958091C6019091C701892B19F06B
S113070085E090E0089570937D0260937C02F093FD
S1130710C701E093C6011092A8011092A70181E0DD
S11307208093A9015E9A569A808121E030E030934B
S1130730A8012093A7010E946C0380E090E0089533
S11307408FB7F8949927209132012E7F209332019C
S11307502EE720939D018FBF61E070E08DE991E069
S11307600E947303992708951F931FB7F8948091EB
S1130770E602882341F48FE00E945202882319F490
S113078081E08093E602812F99278FBF1F910895FE
S11307907FB7F89462B720916C0130916D0140915C
S11307A06E0150916F0106B601FE0FC081B792B77A
S11307B0280F311D411D511D2F5F3F4F4F4F5F4F7C
S11307C0290F311D411D511D04C0260F311D411D2E
S11307D0511D872F99278FBFCA01B9010895EF9240
S11307E0FF920F931F93E091F001E1FF2BC0209142
S11307F0E8013091E9014091EA015091EB01E09068
S1130800EC01F090ED010091EE011091EF01621BFB
S1130810730B840B950B6E157F058007910790F081
S1130820E0FF04C0ED7FE093F0010CC02E0D3F1DEE
S1130830401F511F2093E8013093E9014093EA01DE
S11308405093EB018DE00E9452021F910F91FF9093
S1130850EF900895DF92EF92FF920F931F938FB75B
S1130860F894282F3327D22E91B782B746B798171A
S113087011F041FF02C02FBF6AC08091D4018823C8
S1130880E1F10E94C803E0906002F09061020091DF
S113089062021091630220917E0130917F014091A8
S11308A08001509181016E197F09800B910B6217B1
S11308B073078407950720F01092D40171E01EC0DD
S11308C02E0D3F1D401F511F80916C0190916D01B1
S11308D0A0916E01B0916F01281B390B4A0B5B0B81
S11308E0273E31054105510540F4822F223010F096
S11308F070E005C070E082E002C070E086EE682F10
S1130900615000B601FCFDCF82B7681709F46F5F30
S113091020916C0130916D0140916E0150916F01F5
S1130920DA01C9010196A11DB11D860F911DA11DFA
S1130930B11D82179307A407B50710F4622F6095C1
S113094061BFDFBE772319F08CE00E9452021F9131
S11309500F91FF90EF90DF900895AFB7F894BB2705
S1130960E1E0E093D40160936002709361028093AC
S113097062029093630220937E0130937F0140933F
S1130980800150938101AFBF0E942A04089580E83A
S1130990809382011092A5011092DC021092D7027A
S11309A01092A1010895CF93DF93FC0115A6DC01F9
S11309B09E96ED011B821A82198280E886A7DF9138
S11309C0CF9108952F923F924F925F926F927F92B0
S11309D08F929F92AF92BF92CF92DF92EF92FF924B
S11309E00F931F93CF93DF93CDB7DEB728970FB63E
S11309F0F894DEBF0FBECDBF2090B0013090B1019E
S1130A004090B2015090B3016624772488241EE4F8
S1130A10A12EB3E8BB2ECC24DD24EE24FF2400E079
S1130A2010E0222D332D442D552D662D772D882D44
S1130A3090E00E94911C29833A834B835C836D83ED
S1130A407E838F839887822E932EA42EB52E240125
S1130A50350100E20E948F1DA22EB32EC42ED52E86
S1130A60C301B20196958795779567956A0D7B1DAD
S1130A708C1D9D1D97FF05C09F776F5F7F4F8F4F24
S1130A809F4F6093B0017093B1018093B201909332
S1130A90B30128960FB6F894DEBF0FBECDBFDF9129
S1130AA0CF911F910F91FF90EF90DF90CF90BF9067
S1130AB0AF909F908F907F906F905F904F903F90FA
S1130AC02F9008958FB7F8946091E1017091E2013D
S1130AD02CB53DB506B602FE04C06F5F7F4F2CB542
S1130AE03DB599278FBF88279927CB01772766279C
S1130AF044275527622B732B842B952B0895EF9253
S1130B00FF920F931F930E9462057B018C01209139
S1130B10BE013091BF014091C0015091C10180914B
S1130B20B8019091B901A091BA01B091BB01820FB3
S1130B30931FA41FB51FE216F3060407150730F030
S1130B4082179307A407B50758F005C082179307C7
S1130B50A407B507E0F5E816F9060A071B07B8F578
S1130B609C01AD012E193F09400B510B213060E867
S1130B70360760E0460760E0560768F180E090E8D9
S1130B80A0E0B0E0E80EF91E0A1F1B1FE092BE01B0
S1130B90F092BF010093C0011093C10180E090E87E
S1130BA0AFEFBFEFE80EF91E0A1F1B1F205030489D
S1130BB0404050402093B8013093B9014093BA01AA
S1130BC05093BB0120E030E840E050E014C020E046
S1130BD030E040E050E08093BE019093BF01A093C9
S1130BE0C001B093C1011092B8011092B9011092E2
S1130BF0BA011092BB01A901B7012CB53DB5C901D9
S1130C008E199F0903968417950720F0B9016D5F2B
S1130C107F4F02C0640F751F6115710511F461E007
S1130C2070E0615070407BBD6ABD80E186BF87B7CC
S1130C30806187BF1F910F91FF90EF9008950F93EC
S1130C401F930FB7F89411276093BE017093BF01EF
S1130C508093C0019093C1012093B8013093B901EE
S1130C604093BA015093BB010E947F050FBF1F91AF
S1130C700F9108958FB7F8949927609172028FBFEE
S1130C8085E0689FB0011124625D7E4F706488E145
S1130C900E94850208951F931FB7F8948091A001C4
S1130CA0882319F460E070E009C060E08091E102FB
S1130CB0882309F461E081E0682777278091AD01FA
S1130CC0882319F480E090E00AC090E080916902E2
S1130CD0882309F491E081E09827892F9927762FBA
S1130CE06627770F770F770F54E0880F991F5A956F
S1130CF0E1F7826E9262682B792B81E10E94850272
S1130D00812F99278FBF1F91089597B79F7D97BF14
S1130D1090E296BF882319F08EB5806402C08EB528
S1130D208F7B8EBD87B7806287BF80E090E0089597
S1130D30AF92BF92CF92DF92EF92FF920F931F93E5
S1130D40CF93DF93CDB7DEB728970FB6F894DEBF05
S1130D500FBECDBF20E070E0E0910001F0910101F1
S1130D6032E14DE65CE46FE4809101019E2F289608
S1130D700FB6F894DEBF0FBECDBFDF91CF911F91A8
S1130D800F91FF90EF90DF90CF90BF90AF900895B8
S1130D901F920F920FB60F9211248F9383B783BFC4
S1130DA000B600FCFDCF8F910F900FBE0F901F90E7
S1130DB0189578941F920F920FB60F9211240F90EA
S1130DC00FBE0F901F90189578941F920F920FB634
S1130DD00F9211240F900FBE0F901F9018957894C6
S1130DE01F920F920FB60F9211242F933F938F935C
S1130DF09F932FB7F89433278091E1019091E201FA
S1130E0001969093E2018093E1012FBF9F918F910E
S1130E103F912F910F900FBE0F901F9018951F9226
S1130E200F920FB60F9211240F900FBE0F901F90C8
S1130E3018951F920F920FB60F9211240F900FBEA8
S1130E400F901F9018951F920F920FB60F921124B6
S1130E500F900FBE0F901F9018951F920F920FB610
S1130E600F9211240F900FBE0F901F9018951F9290
S1130E700F920FB60F9211240F900FBE0F901F9078
S1130E8018951F920F920FB60F9211240F900FBE58
S1130E900F901F9018951F920F920FB60F92112466
S1130EA00F900FBE0F901F901895E6EBF0E06927A6
S1130EB0660FF11DE60FF11DC895982F802D319610
S1130EC0C89590250895982F80912D01882389F540
S1130ED0992379F531E030932D0180910D018093B0
S1130EE02E0120912201822F8170809383018091B1
S1130EF01201909113019093300180932F018091FE
S1130F0023018093310132273170267EE32FFF279E
S1130F10EE0FFF1FE25FFE4F8081918190931301DA
S1130F2080931201232B2093220184E10E94520218
S1130F3008958091220180FF02C08B7F01C08D7FC4
S1130F408093220108950F931F93082F162F8091E9
S1130F50A6018130D9F0813038F0823009F44AC0DA
S1130F60833009F028C159C0002309F458C11092F4
S1130F7076021092750210925E0210927E02109216
S1130F80AA011092E4011092E30139C1002309F08F
S1130F9046C18091E3019091E4010E94550790932A
S1130FA0E4018093E30182E08093A60110937E0222
S1130FB0143409F000C125C18695869503C080913B
S1130FC022018695817009F0F6C08091220199234F
S1130FD011F0846001C0826080932201809122011B
S1130FE0877E886080932201109223018FEF809383
S1130FF00D0115C1002309F0DEC06093AA018091A0
S1131000E3019091E4010E9455079093E4018093D9
S1131010E30183E08093A60102C180915E028F3FC9
S113102009F4C9C0002309F461C0823008F4C3C0C4
S1131030E0917502EE2309F4EBC04E2F4150E42FEA
S1131040FF27EB58FD4F82819927382F222744230D
S113105011F4E2E002C0E42FE150FF27EB58FD4F0A
S113106082819927282B392B8091E3019091E40107
S11310702817390709F09FC080E00E946307309168
S1131080AA018091D5012091D601982F9F5F9630B7
S113109008F090E0921771F0E82FFF27EB52FE4F13
S11310A032838F5F8093D501863010F01092D50182
S11310B00E94B403109276021092750294E0909309
S11310C0A60110925E0210927E021092AA01109262
S11310D0E4011092E301809132018D7F809332010B
S11310E080912101882309F49AC084C0823008F4D5
S11310F04EC0E0917602FF27EB58FD4F8281482FC6
S11311005527342F20912201822F86958695869526
S1131110837099278130910519F00297F9F40EC074
S1131120277E206120932201442311F485E001C02D
S113113080E08093230130930D0110C0809123013E
S1131140843360F4E0911201F0911301E80FF11D72
S11311504083809123018F5F8093230180917602E5
S1131160E82FFF27EB58FD4F62818F5F8093760253
S1131170833010F01092760277278091E3019091EA
S1131180E4010E9455079093E4018093E301809168
S11311907502E82FFF27EB58FD4F12838F5F809372
S11311A07502833010F01092750280915E028F5F99
S11311B080935E0234C0109276021092750214E09D
S11311C01093A60110925E0210927E021092AA0160
S11311D01092E4011092E301809132018D7F80939B
S11311E0320181E00E94630780912101882329F064
S11311F01093A6010E945A0312C0002381F081E0DB
S113120009CF80912201982F917080FDD5CED7CE41
S1131210809179029927382F222742E01CCF1F9111
S11312200F9108951F920F920FB60F9211242F93CE
S11312303F934F935F936F937F938F939F93AF935A
S1131240BF93EF93FF935F9B3DC06CB1E091E501C9
S1131250F091E6013097F9F08091E4029091E50273
S1131260E80FF91F608301969093E5028093E402EE
S11312702091EE023091EF028217930718F1109239
S1131280E6011092E50180915B028330D9F0579812
S113129010925B0217C06E3719F460E081E010C051
S11312A0809132016D3721F48260809332010AC04B
S11312B081FF05C08D7F8093320180E2682780E042
S11312C00E94A307FF91EF91BF91AF919F918F91DE
S11312D07F916F915F914F913F912F910F900FBE2E
S11312E00F901F901895982F8D57823068F4809135
S11312F0320181608093320180E2892780935D020C
S11313008DE780939D0102C090939D0161E070E0A0
S11313108DE991E00E9473039927089578941F92B0
S11313200F920FB60F921124FF920F931F932F93D6
S11313303F934F935F936F937F938F939F93AF9359
S1131340BF93CF93DF93EF93FF932091A701309145
S1131350A80180917C0290917D022817390780F4BE
S1131360E091C601F091C701E20FF31F80812F5F66
S11313703F4F3093A8012093A7010E946C03CDC076
S11313801092C7011092C6011092A9015698FFB697
S1131390F8948091320180FF0EC08E7F80933201D9
S11313A080915D0280939D0161E070E08DE991E0A0
S11313B00E947303AFC080915C02843009F48CC036
S11313C0853040F4823021F18330B8F5813009F062
S11313D09CC00DC0863009F48DC0863008F483C0EB
S11313E0873009F48EC0883009F08FC091C0809195
S11313F0BD010E947309082F83E080935C02609111
S1131400BD018091EC029091ED020E94550710C03D
S11314108091DB020E947309082F83E080935C02B1
S11314206091DB028091EC029091ED020E945507DD
S11314309093ED028093EC0266C0E091E701FF27F0
S1131440EE0FFF1FE353FE4F80810E947309082FA4
S11314501091E701C12FDD27FE01EE0FFF1FE353BB
S1131460FE4F60818091EC029091ED020E9455073D
S11314709093ED028093EC022091B7012F5F2093AB
S1131480B701113039F580912901E0912401F091DF
S11314902501E80FF11DE0818F5F80932901909170
S11314A02801981730F482E08093CE0140E050E0A8
S11314B002C04E2F5527DE01AA0FBB1FFD01E453C6
S11314C0FE4F8081823031F02F3F21F0A353BE4F75
S11314D04C9319C084E012C08091EC020E947309FD
S11314E0082F85E00BC08091ED020E947309082F3C
S11314F086E004C00E94A003082F87E080935C026A
S113150002C088E003C0002329F089E080935C02D4
S11315100E94B4038F2D99278FBFFF91EF91DF9124
S1131520CF91BF91AF919F918F917F916F915F9177
S11315304F913F912F911F910F91FF900F900FBEEC
S11315400F901F9018951F920F920FB60F921124AF
S11315508F9380919B0087FF02C080919C008F91A4
S11315600F900FBE0F901F90189578941F920F92B2
S11315700FB60F9211240F900FBE0F901F90189565
S113158078941F920F920FB60F9211240F900FBEF2
S11315900F901F90189578941F920F920FB60F9288
S11315A011240F900FBE0F901F90189578941F92DE
S11315B00F920FB60F9211240F900FBE0F901F9031
S11315C0189578941F920F920FB60F9211248F934F
S11315D09F9380918000909181009F918F910F90B3
S11315E00FBE0F901F90189578941F920F920FB60C
S11315F00F9211242F933F938F939F932FB7F894B7
S113160033278091B5019091B60101969093B6016C
S11316108093B5012FBF9F918F913F912F910F9090
S11316200FBE0F901F9018951F920F920FB60F9236
S113163011242F933F934F935F936F937F938F93D3
S11316409F93AF93BF93EF93FF9383B783BF00B68A
S113165000FCFDCF81B799270196AA27BB272091CB
S11316606C0130916D0140916E0150916F01280F12
S1131670391F4A1F5B1F20936C0130936D01409307
S11316806E0150936F0178940E942A04FF91EF91A8
S1131690BF91AF919F918F917F916F915F914F9186
S11316A03F912F910F900FBE0F901F90189561E0FE
S11316B081E00E94C9018823E9F48FB7F894282FA8
S11316C033278091160190911701892B11F02FBFB8
S11316D020C081E090E090931701809316012FBF02
S11316E0DD9A0E94620524E130E040E050E00E946F
S11316F01F060FC062E081E00E94E301882319F015
S113170089E090E0089561E081E00E94E30188238C
S113171019F080E090E0089585E090E008950F933B
S11317201F93182F0FB7F89461E080E00E94C9015D
S1131730882371F510930301809106018823A9F58C
S113174080911A01823089F588E00CC00E94000261
S113175080911A01882349F481E080931A01109240
S1131760A2018AE00E9452022AC08091BC018F3FEC
S113177031F5E0910501EE2311F11CC01092040132
S113178004C0FF27E454FE4F10821092050117C0D5
S113179081E090E002C0880F991F1A95E2F720912A
S11317A01901282B209319010AC080911A0188235A
S11317B0E1F6CCCF809104018F3F19F7DFCF802F62
S11317C099278FBF80E090E01F910F9108951F9398
S11317D083E00E9415029927182F882319F083E0CB
S11317E00E948F0B812F99271F910895CF92DF922A
S11317F0EF92FF920F931F93CF93DF938C01F62EFA
S11318006A01E22E8FB7F894C82FDD2760E080E0EC
S11318100E94E301882321F0CFBF80E090E01EC046
S1131820CFBF0F0D111D802F80680E947902F82E02
S113183016950795802F807C0E9479020E2D0AC090
S1131840EE2DFF27E01BF109EC0DFD1D80810E94A8
S1131850790201500023A1F78F2D9927DF91CF91B1
S11318601F910F91FF90EF90DF90CF900895CF9349
S1131870DF93CDB7DEB72C970FB6F894DEBF0FBE5B
S1131880CDBF8FB7F894282FAE014F5F5F4FDA01B9
S1131890EAE6F2E088E001900D928150E1F7809150
S11318A0AB019091AC018987892F99278A87809110
S11318B0C2019091C3018B87892F99278C872FBFF1
S11318C02CE060E080E691E00E94F60B2C960FB6C7
S11318D0F894DEBF0FBECDBFDF91CF910895EF9294
S11318E0FF921F93CF93DF93E090AE01F090AF018E
S11318F0F70182A59927182F882309F41FE1C098BE
S113190080919F01811749F0612F77276F71707063
S1131910606E706885E10E94850210939F01F70153
S113192010818FB7F894C82FDD2760E080E00E9413
S1131930E301882311F0CFBF12C0CFBF8EE390E044
S11319409093C9018093C8018EE30E9479021150DB
S1131950412F552760E070E0C7010E941A03DF9110
S1131960CF911F91FF90EF9008950F931F93CF9302
S1131970DF93EC010FB7F89411270E948501FC0155
S11319808FE380830FBF1092DF021092DE0261E0CA
S113199082E00E94C901882319F085E090E072C0BA
S11319A0809174028F5F8093740281508B838FB710
S11319B0F894082F112762E081E00E94E301882354
S11319C029F40FBF0E943B0381E05BC08FB7F894FA
S11319D0992724E0209365028FBFD093D301C0934D
S11319E0D2010FBFFE013196818129819927982F59
S11319F088273327822B932B80729C7C8983892FA1
S1131A00992781832981982F882733272164822B62
S1131A10932B8983892F992781831CA618A619A63D
S1131A2019AA18AA1FA680E88EA761E0609368022D
S1131A304091D2015091D3018FB7F894282F3327C6
S1131A4080911B0190911C018830910511F0019740
S1131A5011F02FBF15C082E090E090931C01809399
S1131A601B016093EB025093AF014093AE011092BF
S1131A7037012FBF0E94E70B882311F40E946F0CDB
S1131A8080E09927DF91CF911F910F910895CF9313
S1131A90DF93DA01422F2D3118F082E090E05EC02E
S1131AA0ED018B876E83872F99278F832FB7F89447
S1131AB033278091AB019091AC012FBFFD0184834A
S1131AC0892F992785832FB7F894332780910701AD
S1131AD0909108012FBF8887892F9927898731968C
S1131AE0818129819927982F882733272064386892
S1131AF0822B932B8983892F99278183435F4C936E
S1131B004D5080910A01882359F010920A01642FE4
S1131B10CD010E94B50C9927282F8823A9F417C05A
S1131B20842F99279093D1018093D001B093200101
S1131B30A0931F018EE00E94520280910A01882323
S1131B4049F489E090E00AC08FEF80930A01822F64
S1131B50992704C01092B40180E090E0DF91CF9106
S1131B60089510920201E091DF01F091E0013097B5
S1131B7021F08091DD0280FF08C081E080930201A2
S1131B80089581E00E945202089520812D50332748
S1131B9067817727762F662786819927682B792B8B
S1131BA0AF0183850E94470D882359F708958091DA
S1131BB00201882379F48091DF019091E001861776
S1131BC0970741F41092E0011092DF010E94B10DD9
S1131BD01092140108951F93CF93DF93182F8FB79A
S1131BE0F894C82FDD2760E080E00E94E301882399
S1131BF021F0CFBF80E090E005C0CFBF812F0E94CD
S1131C0079029927DF91CF911F910895EF92FF9266
S1131C100F931F93CF93DF93182F7B01042F8FB75C
S1131C20F894C82FDD2760E080E00E94E301882358
S1131C3021F0CFBF80E090E014C0CFBF1064812FAB
S1131C4099279093C9018093C8010E947902182FA3
S1131C50402F5527B70180E090E00E941A03812F9E
S1131C609927DF91CF911F910F91FF90EF900895E5
S1131C70C098609133017091340141E08FE30E9478
S1131C80060E089582E090E090939B0180939A0160
S1131C9081E08093A50120E030E08091030184304D
S1131CA011F421E030E0232B29F484E00E94150292
S1131CB0882319F40E94380E089584E00E948F0B43
S1131CC008951F920F920FB60F9211242F933F93F2
S1131CD04F935F936F937F938F939F93AF93BF9330
S1131CE0EF93FF9380919A0190919B01019749F49E
S1131CF082E090E090939B0180939A010E94420EAF
S1131D0005C08091A1018F5F8093A101FF91EF91A4
S1131D10BF91AF919F918F917F916F915F914F91FF
S1131D203F912F910F900FBE0F901F9018951F9306
S1131D3080911901882309F04BC0109103011F3FC2
S1131D4009F046C060E00E94E301882309F440C022
S1131D5081E080937302809184018823E1F11092E1
S1131D60730285E090E045C0923069F5C09A809195
S1131D70040120E030E08F3F11F421E030E0232B18
S1131D80E9F4109306018F3F19F42FEF30E00DC0F2
S1131D90282F3327F901E454FE4F808180930401F6
S1131DA08F3F11F41093050110832093A20181E069
S1131DB080931A018AE00E94520205C01093060122
S1131DC010921A0111C080911A01882369F00FC082
S1131DD081E090E00EC08091060190911A01882361
S1131DE019F2923021F0EFCF80E00E94F40180E0FC
S1131DF090E01F9108951F93CF93DF939FB7F894BA
S1131E00C92FDD271C2F90910301981721F0CFBF14
S1131E1081E090E03AC08FEF809303013091190183
S1131E203323F1F48FB7F8949927109264028FBF8B
S1131E300E94970ECFBF11C02093030181E090E070
S1131E4002C0880F991F4A95E2F780953823309392
S1131E50190188E00E9452021FBF80E090E015C083
S1131E6080E065E0E32FFF270E94121E292F492FEF
S1131E705527CF01042E02C0959587950A94E2F761
S1131E8080FDDACF822F8F5FEFCFDF91CF911F914B
S1131E9008951F93CF93DF938FB7F894C82FDD274E
S1131EA01C2F80919A0190919B01892B29F484E045
S1131EB00E94FB0ECFBF1EC01092A5018091A1010C
S1131EC0882311F0B79904C00E9908C0882319F02B
S1131ED081508093A1010E94420E0BC081E090E0EA
S1131EE090939B0180939A011092A10184E00E9437
S1131EF0FB0E1FBFDF91CF911F9108950E94C7046D
S1131F00C09AC09888E00E94EB0D88E00E94EB0D17
S1131F10C09A84E00E94FB0E0E94490F08951F930B
S1131F20182F81E090E090931C0180931B01109284
S1131F3084010E94970E8FB7F89499271093150186
S1131F408FBF84E00E9452021F910895CF92DF92C6
S1131F50EF92FF920F931F93CFB6F894DD240E9463
S1131F60E204DC01CB0166E470E00E941E1EBBE0CB
S1131F70EB2EF12CE80EF91EF092E802E092E70253
S1131F800E94620500271127A80197010E941F06DD
S1131F90CFBE1F910F91FF90EF90DF90CF900895E7
S1131FA01F93CF93DF938FB7F894C82FDD271C2F8F
S1131FB080911B0190911C010897C9F489E00E944B
S1131FC0EB0D83E00E94FB0EC09A81E090E09093B9
S1131FD01C0180931B018FB7F894992723E0209369
S1131FE015018FBF84E00E945202CFBF30C0C09859
S1131FF08091EB02882311F085E001C084E00E9407
S1132000EB0D83FD09C080E00E94EB0D83FF04C04B
S113201085E090E020E003C083E090E021E090932D
S11320201C0180931B01C09A1FBF222341F0109210
S1132030370183E00E94FB0E0E94A60F08C00E9495
S1132040620520E431E040E050E00E941F06DF9189
S1132050CF911F91089578941F920F920FB60F920B
S113206011242F923F924F925F926F927F928F92A0
S11320709F92AF92BF92CF92DF92EF92FF920F9313
S11320801F932F933F934F935F936F937F938F93FC
S11320909F93AF93BF93CF93DF93EF93FF93C6B513
S11320A0D7B58FB7F894282E0E9462059B012C1B8C
S11320B03D0B442755272B013C01421A530A640A5D
S11320C0750A80911B0190911C018530910521F0C6
S11320D0069709F0E0C0BFC086E090E090931C0131
S11320E080931B0131E0332E3092A40110921D0124
S11320F080E00E948506E091AE01F091AF0141AA13
S1132100BB27A72D962D852D80ABC301AA27BB27FE
S113211087A7872D9927AA27BB2786A7E091AE0119
S1132120F091AF0185A5882309F484C060816550CE
S113213077274F01860E971EF4012081E18082816A
S1132140A3809927AA27BB27BA2FA92F982F8827BE
S1132150332744275527522F442733272227FF2488
S1132160002711278701FF24EE242E293F29402B25
S1132170512BBB24CC24DD242A293B294C295D295D
S1132180822B932BA42BB52B84199509A609B70987
S11321908383292F3A2F4B2F552722839D014427D0
S11321A0552721838B2F9927AA27BB278083C09883
S11321B024E0A40180E090E00E94F60BC09AF401B0
S11321C02081E1808281A3809927AA27BB27BA2F87
S11321D0A92F982F8827332744275527522F442780
S11321E033272227FF24002711278701FF24EE2409
S11321F02E293F29402B512BBB24CC24DD242A2912
S11322003B294C295D29822B932BA42BB52B840DC0
S1132210951DA61DB71D8383292F3A2F4B2F5527B4
S113222022839D014427552721838B2F9927AA2791
S1132230BB278083E091AE01F091AF01818185FFDE
S113224002C03092840183E00E94FB0E87B78F7E28
S113225087BF84997AC01092A40181E00E94850608
S1132260E091AE01F091AF01818185FF0FC087E05D
S113227090E090931C0180931B010E94620520E072
S113228031E040E050E00E941F0603C080E00E945D
S11322908F0F849B5AC080911D01882391F58091F2
S11322A0A401882371F511E01093A4010E9485060E
S11322B080B32091D702283098F4E091DC02E20F39
S11322C0FF27E770F070EE0FFF1FEE0FFF1FED57B3
S11322D0FD4F40825182628273822F5F2093D70226
S11322E010931D01D093CB01C093CA0184992DC0D2
S11322F0992714E0969587951A95E1F7182F117090
S113230001C010E08091A4018130F9F41092A4017D
S11323100E94850610921D011123B9F48091CA010F
S11323209091CB01C81BD90B2A9778F48091D702DE
S1132330882319F081508093D7028091AE01909147
S1132340AF01009711F00E94D3042FBEFF91EF91CB
S1132350DF91CF91BF91AF919F918F917F916F91B9
S11323605F914F913F912F911F910F91FF90EF90AB
S1132370DF90CF90BF90AF909F908F907F906F90A1
S11323805F904F903F902F900F900FBE0F901F9033
S11323901895EF92FF920F931F93CF93DF938B01C6
S11323A08091C8019091C90186FF40C18F7B8F3312
S11323B009F08EC1C0913301D091340158815093FA
S11323C09C0180919A0190919B018530910509F4BB
S11323D043C08630910509F48AC0029709F01FC1F1
S11323E085E090E090939B0180939A014091820153
S11323F0852F99270196242F3327281739074CF165
S1132400B79906C00E9904C0451B41504093820100
S113241040919C014A32E8F44423A1F0BE016F5F6D
S11324207F4F483018F047E050E007C086E090E066
S113243090939B0180939A01552780E090E00E943D
S11324401A0346C11092A501C09A84E00E94FB0EB3
S1132450E3C00E947E0F3CC186E090E090939B0114
S113246080939A018091AD01882309F439C0809149
S113247069028823A9F5898185FF32C08F814E8145
S11324802FB7F89433276091C2017091C3012FBF15
S11324909927982F88275527842B952B86179707DC
S11324A059F08F812E819927982F88273327822BE3
S11324B0932B8F5F9F4FA1F489818770813081F4C2
S11324C0C09AC0988AE00E94EB0DC09AC0984091CF
S11324D09C0147502896BE018FE30E94060EF8C067
S11324E040919C01475055272896BE01A6CFC09A1B
S11324F08091A101882339F484E00E94FB0E80912D
S1132500A101882311F0B7990AC00E9B08C09091CD
S1132510D702992321F080919C018B3038F480916B
S11325203301909134010E94D3043DC0913001F5F0
S1132530E091DC02FF27EE0FFF1FEE0FFF1FED57A8
S1132540FD4F2081318142815381E0913301F0912B
S1132550340121ABBB27A52F942F832F80ABCA0155
S1132560AA27BB2787A7252F33274427552726A724
S11325708091DC029927019668E070E00E94321E87
S11325808093DC028091D70281508093D702882304
S113259051F080913301909134010E94D304109240
S11325A0DC021092D70280919C01FE01E80FF11D1C
S11325B0808187FF31C0012B79F169816770E091D7
S11325C03301F0913401623019F5A091AE01B0915C
S11325D0AF01109709F180911B0190911C0107979D
S11325E0D9F4ED019B8183819817B1F487B78F7E6D
S11325F087BF908181E08CA7E90FF11D829131960C
S113260088A780818F7789A780E00E948F0F04C0FC
S1132610613011F48BE02AC00E94490F59C0109216
S1132620A501C09A84E00E94FB0E52C08E3309F0CB
S11326304FC0C09A80911B0190911C010897C9F466
S1132640C09889E00E94EB0DC09A83E00E94FB0EC3
S113265081E090E090931C0180931B018FB7F89464
S1132660992723E0209315018FBF84E00E94520232
S11326702FC08091EB02882349F484E090E090938A
S11326801C0180931B010E94D00F22C083E00E9492
S1132690FB0E83E090E090931C0180931B010E9449
S11326A0E204DC01CB0166E371E00E941E1E4BE0F4
S11326B0E42EF12CE80EF91EF0927D01E0927C01EB
S11326C00E94620500271127A80197010E941F0696
S11326D0DF91CF911F910F91FF90EF9008951F927A
S11326E00F920FB60F9211242F933F934F935F9342
S11326F06F937F938F939F93AF93BF93EF93FF93C6
S11327002FB1E0915902F0915A02309739F080913B
S1132710DD019091DE01E80FF91F20838091DD0136
S11327209091DE0101969093DE018093DD0180E0BB
S11327300E94FA0140913501509136018091DD01EA
S11327409091DE018417950718F40E94AC021CC016
S11327506091590270915A028091E2029091E302D1
S113276010925A02109259021092E3021092E2025D
S113277010923601109235011092DE011092DD01A3
S11327802FB120E00E94C911FF91EF91BF91AF9149
S11327909F918F917F916F915F914F913F912F9175
S11327A00F900FBE0F901F901895EF92FF920F930A
S11327B01F93CF93DF93CDB7DEB7A8970FB6F894E6
S11327C0DEBF0FBECDBFE82FFF27E531F10508F0CE
S11327D0D0C5EA5BFF4FEE0FFF1F0590F491E02D8B
S11327E009948091DD02882309F4C3C520E031E017
S11327F09091DD02832F8923A1F0E22FFF27EE0FB2
S1132800FF1FE152FE4F11821082832F809598237F
S11328109093DD02222329F410921401330F21E056
S1132820E7CF2F5F283008F0A4C5330FE1CF109114
S11328300201E12FFF27EE0FFF1FE152FE4F11822D
S113284010820E94B10D112309F093C51092140156
S113285090C50FB7F894112781E00E94850641E0E6
S1132860E42EF12CF0921C01E0921B0110921D0148
S11328701092840110929F010FBF0FB7F894112793
S11328800E94C704F0929B01E0929A011092A50164
S113289089B78F7B89BF80E488BF8AB780628ABF8B
S11328A08AB78F7E8ABF89B7806489BF0FBF8FB70D
S11328B0F894082F1127809116019091170104971D
S11328C019F483E00E94EB0D0FBF0FB7F8941127A2
S11328D0C09A80E00E94FB0E0FBF8FB7F89499272F
S11328E022E0209365028FBF0E94420342C58FB746
S11328F0F894992710926502CCC48FB7F89499275D
S1132900F09015018FBF63E081E00E94E30188230A
S113291059F10FB7F894112710921C0110921B0162
S113292087B78F7E87BF87B78F7D87BF83E00E947D
S1132930FB0EC09A0FBF0FB7F894112710929B019A
S113294010929A010E94C704C09A89B78F7B89BFED
S11329500FBF1092170110921601DE98DD98DE9ACF
S113296083E00E94520207C08FB7F894992722E0AF
S1132970209365028FBF0091D2011091D3010E9470
S11329803B038091DE029091DF02892B09F0F1C4B0
S11329908FEF80930A014F2DB8016EC38FB7F8945F
S11329A0282F3327122F8091E902882301F581E033
S11329B08093E9028091160190911701049721F404
S11329C081E00E948F0B03C086E00E9452021FBF69
S11329D0D0C48FB7F89499271092E9025AC48FB7DC
S11329E0F894282F332780911801882311F02FBFE2
S11329F0C0C42FBF80B3992736E0969587953A9542
S1132A00E1F7182F11709091C4018091C5018917C5
S1132A10D9F01917C9F484E090E0909317018093DA
S1132A2016018FB7F894992721E0209318018FBFDE
S1132A3060E070E08DE10E9485020E94370CC09A2C
S1132A40C09882E00E9452021093C50187E014C42A
S1132A508FB7F8949927109103018FBF123009F4AE
S1132A6065C0133030F4112359F0113009F081C4DA
S1132A7048C0133009F474C0143009F07AC4A0C0FB
S1132A80C0988FB7F894082F112780911601909160
S1132A901701029709F0BCC383E090E090931701FB
S1132AA08093160168E170E08DE10E94850281E067
S1132AB08093C4011092180180B3992726E096955B
S1132AC087952A95E1F7817090708093C50187E01E
S1132AD00E94520281E00E94EB0D6FE772E08CE1EC
S1132AE00E9485020E943A060E944B0666E57AE23D
S1132AF087E10E9485026FEF70E885E10E948502FC
S1132B0087C3C09886E00E94EB0D0E943A060E949B
S1132B104B060E94370CC09AC09883E00E94EB0DCC
S1132B20C09A81E00E94FB0E86E0A6C3C0988FB7CE
S1132B30F894082F112760E080E00E94E3018823C5
S1132B4011F00FBF0AC00FBF83E50E94790280E035
S1132B500E94790280E00E947902C09A82E02DC02E
S1132B608FB7F894992720911B018FBF243039F037
S1132B70283041F0223001F50E946F0CFAC30E9404
S1132B80D00FF7C3C09889E00E94EB0DC09A83E090
S1132B900E94FB0E8FB7F894992721E030E0309320
S1132BA01C0120931B018FBF8FB7F89499271093B2
S1132BB015018FBF84E060C383E00E94FB0ED9C37C
S1132BC00E94380ED6C30FB7F894112740913501EF
S1132BD0509136016091590270915A028091E2023B
S1132BE09091E30210925A02109259021092E30259
S1132BF01092E20210923601109235011092DE0119
S1132C001092DD0120E00E94C91102C32FB7F8948D
S1132C1033278091A2018093060182E080931A01F8
S1132C202FBF80910601882309F0A3C3B89AC098E6
S1132C3088E022C3A0913301B09134011C919D011D
S1132C40210F311DF9018081881F8827881FFD010C
S1132C5083A7F90180818F77FD0181A7215030403E
S1132C60F9018081FD0180A7A0913301B091340165
S1132C70FD0132818FB7F89499272091A0018FBF6D
S1132C80222309F490C0832F9927969587959695CA
S1132C908795837090708230910541F587814681D4
S1132CA02FB7F89433276091C2017091C3012FBFED
S1132CB09927982F88275527842B952B86179707B4
S1132CC019F481E090E06CC0FD018781268140E029
S1132CD050E09927982F88273327822B932B8F5FD7
S1132CE09F4F11F441E050E0CA015AC0039709F024
S1132CF01AC19E012F5F3F4F4AE652E088E0FA0175
S1132D000190AF01F90101929F018150C1F79E0129
S1132D102F5D3F4FAE014F5F5F4F88E0FA01019096
S1132D20AF01F90101929F018150C1F79E01275F14
S1132D303F4FAE014F5D5F4F88E0FA010190AF0154
S1132D40F90101929F018150C1F79E012F5E3F4F0F
S1132D50AE01475F5F4F88E0FA010190AF01F901CE
S1132D6001929F018150C1F79E01275E3F4FAE0142
S1132D704F5E5F4F88E0FA010190AF01F9010192C3
S1132D809F018150C1F748E050E0BE01675E7F4F6C
S1132D90CD0106960E94BD1E892B09F0C4C003C054
S1132DA0882309F4C0C01D3008F4BDC0E09033018D
S1132DB0F0903401F7012281822F992736E096950D
S1132DC087953A95E1F7039719F468E070E002C03B
S1132DD062E070E0822F992796958795969587955E
S1132DE083709070039719F488E090E002C082E049
S1132DF090E026E030E0E20EF31E40E050E020E0F8
S1132E0030E0F701E80FF91F8AEF9FEFE80EF91E93
S1132E1005C08191480F511D2F5F3F4F261737077B
S1132E20C4F3F70163818FEF8093E0028FB7F894C6
S1132E30782F20E030E0E0E7F1E080819181841791
S1132E40950729F48281861731F12093E0022F5FE0
S1132E503F4F33962430310581F77FBF9091E002D4
S1132E603FB7F8949F3F21F080911E018917A9F480
S1132E7020911E01822F9927FC01EE0FFF1FE80FFE
S1132E80F91FE059FE4F5183408362832F5F237003
S1132E9020931E010EC07FBF42C0892F9927FC01D9
S1132EA0EE0FFF1FE80FF91FE059FE4F51834083D7
S1132EB06283832F99278FBF0FB7F8941127C70117
S1132EC00E948501FC0190810FBFF70183A588232F
S1132ED031F19F3321F5878146812FB7F894332749
S1132EE060910701709108012FBF9927982F8827B7
S1132EF05527842B952B8617970759F087812681B0
S1132F009927982F88273327822B932B8F5F9F4FE6
S1132F1031F4F7018385853611F4EE24FF24F09211
S1132F203401E09233018FB7F89499271092A501E8
S1132F308FBF0E94490F1DC280919E01882361F5B5
S1132F4020917F023091800240918102509182024F
S1132F50EFB7F894FF27609160027091610280914D
S1132F60620290916302E0907E01F0907F010091F3
S1132F708001109181016E0D7F1D801F911FEFBF95
S1132F8020937F0230938002409381025093820207
S1132F9010929E010E94AD040E94C8033AC00E9490
S1132FA0C8037B018C018FB7F89499271092D40140
S1132FB08FBF8091F00181FFDCC18091E801909185
S1132FC0E901A091EA01B091EB01A8019701281B46
S1132FD0390B4A0B5B0BDA01C9012091EC013091EA
S1132FE0ED014091EE015091EF01281B390B4A0B82
S1132FF05B0B2F3F8FEF38078FEF48078FE758079A
S113300009F4B7C112161306140615062CF0C801EC
S1133010B7010E94EF03ADC120937F023093800279
S1133020409381025093820281E080939E01C80103
S1133030B7010E94AD049DC19091B40180910A0131
S1133040981709F496C190930A019923D1F4009139
S11330501F01109120016091D001C8010E94B50C9C
S1133060482F5527442309F484C18FEF80930A0124
S113307060911F0170912001F80183850E94D70D92
S113308078C18FEF80930A0174C18FB7F8941092BE
S1133090E60220915C0240E0283009F441E030E08F
S11330A0293009F431E0442311F4332351F0109210
S11330B05C02E091E701FF27EE0FFF1FE453FE4F90
S11330C0108299278FBF442311F4332331F19FB722
S11330D0F8948091DB028F5F8093DB028091BD01C5
S11330E0833479F42091D6018091D501821779F047
S11330F0822F8F5F8093D601863048F01092D601DC
S113310006C0A0E0442309F4A1E071E002C070E02D
S1133110A0E0892F99278FBF06C0222311F0FF2436
S11331206DC070E0A0E08FB7F89499272091210139
S11331308FBF222341F08FB7F89499272AE0209378
S11331405C028FBF42C08FB7F89499276091CC017D
S11331504091CE018FBF8FB7F894282F332750E0CA
S11331609091D5018091D601981709F451E02FBFB1
S1133170552341F5662331F55FB7F89482E08093D7
S1133180CC018FB7F894282F332740E09091D501D4
S11331908091D601981709F441E02FBF442311F020
S11331A080E006C0E091D601FF27EB52FE4F8281FA
S11331B08093CD0183E48093BD011092E701852FB4
S11331C099270EC04150423010F0FF240CC08FB735
S11331D0F894992725E42093BD0121E02093E70189
S11331E08FBF51E0F52E772349F08FB7F8949927D4
S11331F0A0932A018FBF83E10E9452028FB7F894F3
S1133200082F112780915C028A3021F40E945A030E
S11332100FBFAFC00FBFFF2009F4ABC02FB7F894A6
S113322033271092ED021092EC021092B70181E064
S113323080935C022FBF0E94A003882309F499C0E5
S11332408FB7F894992729E020935C028FBF0E94DE
S1133250B4038FC05698579810925B021092A9013C
S1133260539A549A579A8FB7F894992710925C02FC
S11332701092A6010EC082E10E9452027AC05398B5
S1133280549877C010922701109226018FB7F894B2
S113329099276EC08FB7F894992720912E01009139
S11332A02F0110913001E09083018FBF222309F098
S11332B049C0F8018385853609F044C08485258595
S11332C09927982F88273327822B932B80934501A6
S11332D0892F99278093440180911401882391F5C3
S11332E048E351E021E0F22EF0923E0110923F01BA
S11332F085E6809343018091DF019091E001892B61
S113330009F55093E0014093DF0183E18093380194
S113331080910201882399F01092020126E061E075
S113332070E085E60E94470D9927882341F0F092CA
S113333002011092E0011092DF01882319F481E068
S1133340809314018FB7F894EE2DFF27EE0FFF1F23
S1133350E25FFE4F1183008320912201EE2011F0E1
S11333602B7F01C02D7F2093220110922D019927DC
S11333708FBFA8960FB6F894DEBF0FBECDBFDF9106
S1133380CF911F910F91FF90EF9008958091D802F3
S11333908F3FB1F0282F3327F901EB57FE4F80817F
S11333A08093D8028F3F11F48093EA028FEF8083D9
S11333B02F3F31F0822F0E94D51381E090E00895D1
S11333C080E090E00895FF920F931F93CF93DF93D3
S11333D0CDB7DEB7E0970FB6F894DEBF0FBECDBF12
S11333E0FFB6F89445E150E06FEF70E085E891E0B6
S11333F00E94CA1E8FEF8093D8028093EA0281E074
S11334008EBD88E080BF83E083BF8CB59DB54AE75D
S11334102CB53DB52817390708F44150442311F061
S1133420C901F6CF92B782B78917E9F32CB53DB538
S113343092B782B78917E9F38CB59DB5821B930BBC
S11334404096F5E096958795FA95E1F79093DA0220
S11334508093D90213BE83B78EBD8EB580BF12BED2
S11334601DBC1CBC8FEF86BF86B780937C0080B7E1
S1133470992787709070892BD1F7D29AD19AD09AD4
S1133480DA9AD99AD89A15BA8FEF84BBD498DC9873
S1133490109289001092880080917D00846080934E
S11334A07D0080918A00887F826080938A001DBCA1
S11334B01CBC87B7846087BF8EB5887F84608EBD4F
S11334C00E94C6198823E1F712E006E06091D90250
S11334D07091DA0288279927ECE0660F771F881F1E
S11334E0991FEA95D1F720E031EE40E050E00E94C8
S11334F0451E2150304029B9832F9927809390008D
S11335001BB9009395001AB82093990080939800F2
S113351010939B0000939D0010929A0084E490E025
S113352090937B0280937A021092CC011092CE0188
S11335308AE080935C021092B7011092BD01109250
S1133540DB021092ED021092EC021092E60210924D
S1133550E701109276021092750284E08093A6012E
S113356010925E0210927E021092AA011092E4015F
S11335701092E3011092D6011092D5018FEF80933F
S1133580A301E0E7F1E08FEF9FEF91838083128244
S1133590339621E0EC37F207C1F70E94E20460930E
S11335A0740280910001909101010196AA27BB2722
S11335B08093B0019093B101A093B201B093B30191
S11335C080B7886080BF8BE083BF86EE81BF87B7FA
S11335D0826087BF0E942A0483EA92E090933401B8
S11335E0809333018E98B89A8C988FEF8093BC01A6
S11335F010926402109265021092660210926702A1
S1133600B89AD69AD59A8FB7F8949927209107013A
S1133610309108018FBF3093C3012093C2010E94EF
S1133620980629A73AA74BA75CA76DA77EA78FA7E3
S113363098ABDE019196FE01B99688E001900D9257
S11336408150E1F7DE015196FE01B19688E00190C8
S11336500D928150E1F7DE015996FE01719688E0E2
S113366001900D928150E1F7AAE6B2E0FE0179964D
S113367088E001900D928150E1F78091090199272A
S11336809093AC018093AB018FE180935F028AE158
S1133690809372020E94980629A73AA74BA75CA7B9
S11336A06DA77EA78FA798ABDE019196FE01B99610
S11336B088E001900D928150E1F7DE011196FE0140
S11336C0B19688E001900D928150E1F7DE011996E0
S11336D0FE01319688E001900D928150E1F7AAE64F
S11336E0B2E0FE01399688E001900D928150E1F735
S11336F0AAE6B2E0FD0137969C9180818D93908378
S1133700319782E0ED36F807B9F781E08093A001A4
S11337101092E1028093AD01109269020E94C619D1
S11337208823E1F78F2D99278FBF78940E94570B38
S11337308FB7F894482F55274BC087B799278370C4
S11337409070892B19F4E5E0F0E013C080B7992755
S113375087709070892BD1F781B792B7891B8C3011
S113376030F082B7853F18F4E3E0F0E002C0E2E015
S1133770F0E087B7887BC1F480917D008B7FA1F452
S11337806E9912C08AB190919A00892B887161F464
S11337908091740082FD08C0379B03C081E090E0F3
S11337A005C085E090E002C080E090E025B78E1768
S11337B008F4E82FFF27EA54FD4FE491237E2062AA
S11337C0E22BE5BF78948895F89485B78F7D85BF03
S11337D08091D8028F3F09F4B0CF282F3327F90105
S11337E0EB57FE4F80818093D8028F3F11F4809372
S11337F0EA028FEF80832F3F09F49FCF4FBF822FC0
S11338000E94D51395CF78941F920F920FB60F9202
S113381011241F932F933F934F935F936F937F9341
S11338208F939F93AF93BF93EF93FF9387B78F7E4D
S113383087BF78941FB7F8948091B8019091B9012B
S1133840A091BA01B091BB010097A105B10509F09F
S113385051C080911B0190911C018530910561F14B
S11338608630910530F48330910549F0049781F551
S11338701AC087309105F1F0089751F514C0869B62
S11338800FC084E090E090931C0180931B010E9480
S1133890620527E030E040E050E00E941F0618C0B7
S11338A00E94A60F15C00E94E70B882389F40E948A
S11338B0D00F0EC080E00AC089E00E94EB0D81E0C9
S11338C00E94850683E00E94FB0E87E00E948F0F12
S11338D08091160190911701019771F482E090E0B4
S11338E09093170180931601DE98DE9A80E00E947F
S11338F08F0B02C00E947F05812F99278FBFFF91F4
S1133900EF91BF91AF919F918F917F916F915F9153
S11339104F913F912F911F910F900FBE0F901F90C9
S11339201895ACE2B0E0E7E9FCE10C94861E222E87
S1133930332E442E552E662E772E882E992EFE0178
S11339403196A8E01192AA95E9F729823A824B822E
S11339505C826D827E828F829886FE013996B8E001
S11339601192BA95E9F7A986BA86CB86DC86ED86EC
S1133970FE860F87188B89819A81AB81BC8189A7C8
S11339809AA7ABA7BCA77C018D018FEF9FEFA0E0A6
S1133990B0E0E822F9220A231B2389A59AA5ABA546
S11339A0BCA51D014424552489859A85AB85BC8515
S11339B08DA39EA3AFA3B8A75C016D018FEF9FEF0A
S11339C0A0E0B0E0A822B922CA22DB228DA19EA1E8
S11339D0AFA1B8A53D0188249924C801B701A60167
S11339E095010E94671E69A37AA38BA39CA3C801B7
S11339F0B701A40193010E94671E7B018C01C201DF
S1133A00B101A60195010E94671E5B016C01C20110
S1133A10B101A40193010E94671E3B014C01EA0C11
S1133A20FB1C0C1D1D1D89A19AA1ABA1BCA19D016C
S1133A30442755272E0D3F1D401F511F2A153B05B6
S1133A404C055D0540F480E090E0A1E0B0E0680E34
S1133A50791E8A1E9B1ECA01AA27BB27860D971DA5
S1133A60A81DB91D8D8F9E8FAF8FB8A3A9013327D1
S1133A70222789A19AA1ABA1BCA1A070B070280F84
S1133A80391F4A1F5B1F298F3A8F4B8F5C8FA98C7C
S1133A90BA8CCB8CDC8CED8CFE8C0F8D18A1FE01C6
S1133AA0719698E011929A95E9F7ED8AFE8A0F8B48
S1133AB0188F2D813E814F8158856DA17EA18FA1E4
S1133AC098A50E94671E3B014C012D853E854F85BC
S1133AD0588969A57AA58BA59CA50E94671E2D8986
S1133AE03E894F89588D260F371F481F591F260DB1
S1133AF0371D481D591D2D8B3E8B4F8B588F6D885C
S1133B007E888F88988C2A2D3B2D4C2D5D2D662D1B
S1133B10772D882D992DE2E1AC960C94A21EA0E19C
S1133B20B0E0E5E9FDE10C94861E222E332E442EEE
S1133B30552E662E772E882E992E002309F466C002
S1133B4088E0FE01319611928A95E9F729833A8338
S1133B504B835C836D837E838F829887E0E2E01BD6
S1133B601E16CCF52D813E814F815885602F772715
S1133B7067FD7095DA01C901062E04C0B695A795B4
S1133B80979587950A94D2F78D879E87AF87B88BD0
S1133B9004C0220F331F441F551FEA95D2F78981B1
S1133BA09A81AB81BC8104C0B695A79597958795FA
S1133BB06A95D2F7282B392B4A2B5B2B29873A8716
S1133BC04B875C8729843A844B845C846D847E842F
S1133BD08F8498881BC01D861E861F86188A2E2FE8
S1133BE0332727FD3095309521953F4F8D819E8158
S1133BF0AF81B88504C0B695A795979587952A9502
S1133C00D2F789879A87AB87BC87DCCF222D332DE7
S1133C10442D552D662D772D882D992DE2E1609642
S1133C200C94A21E991B79E004C0991F961708F002
S1133C30961B881F7A95C9F780950895AA1BBB1B0C
S1133C4051E107C0AA1FBB1FA617B70710F0A61B98
S1133C50B70B881F991F5A95A9F780959095BC01B9
S1133C60CD01089597FB092E07260AD077FD04D0CD
S1133C70E5DF06D000201AF4709561957F4F089512
S1133C80F6F7909581959F4F0895A1E21A2EAA1BED
S1133C90BB1BFD010DC0AA1FBB1FEE1FFF1FA217F8
S1133CA0B307E407F50720F0A21BB30BE40BF50BF5
S1133CB0661F771F881F991F1A9469F7609570957E
S1133CC0809590959B01AC01BD01CF010895629F41
S1133CD0D001739FF001829FE00DF11D649FE00D00
S1133CE0F11D929FF00D839FF00D749FF00D659F61
S1133CF0F00D9927729FB00DE11DF91F639FB00D60
S1133D00E11DF91FBD01CF01112408952F923F92A7
S1133D104F925F926F927F928F929F92AF92BF92D7
S1133D20CF92DF92EF92FF920F931F93CF93DF9383
S1133D30CDB7DEB7CA1BDB0B0FB6F894DEBF0FBEE0
S1133D40CDBF09942A88398848885F846E847D842D
S1133D508C849B84AA84B984C884DF80EE80FD802F
S1133D600C811B81AA81B981CE0FD11D0FB6F894A5
S1133D70DEBF0FBECDBFED010895FB01DC0104C021
S1133D808D910190801921F441505040C8F7881B4F
S1133D90990B0895DC0101C06D9341505040E0F748
S1073DA00895FFCFB0
S1133DA4010001FFFFFFFF010022FFFFFFFFF101FC
S1073DB42502F101EE
S9030000FC
