S01800006275696C642F6D6963617A2F6D61696E2E73726563E5
S11300000C9449000C9473040C947D040C948704A0
S11300100C9491040C949B040C94A5040C945B071D
S11300200C94AF040C9468000C9468000C948A132C
S11300300C94150A0C94B9040C94CF040C94EF049A
S11300400C9462040C94490C0C9468000C946800A1
S11300500C9468000C9468000C9468000C9468007C
S11300600C94C4040C9468000C9468000C9468000C
S11300700C9468000C9468000C9468000C9468005C
S11300800C9468000C9468000C94680000081C1818
S1130090141011241FBECFEFD0E1DEBFCDBF11E09D
S11300A0A0E0B1E0EEE8FEE200E00BBF02C0079082
S11300B00D92AC30B107D9F712E0ACE0B1E001C069
S11300C01D92AC30B107E1F70E94D5110C9446178C
S11300D00C9400008FB7F894992708958FBF089562
S11300E0FC0182819927582F442781819927482B25
S11300F0592BCA01892F992786958695837090700C
S11301008230910559F08330910559F0892B19F407
S113011020E030E008C02CE93FEF05C022E030E0E9
S113012002C028E030E0CA0184E0989F812D99271D
S113013011248230910559F08330910559F0892BAF
S113014019F480E090E008C08CE99FEF05C082E0DC
S113015090E002C088E090E0280F391F2A5F3F4FEB
S1130160CF01820F931F0895282F9FB7F894662319
S113017049F0E82FFF27ED56FE4F8081882311F0C8
S113018021E006C0E22FFF27ED56FE4F608320E0FA
S1130190892F99278FBF822F99270895E82F8FB72A
S11301A0F894282F332790E0FF27ED56FE4F8081E7
S11301B0861709F491E02FBF892F99270895882382
S11301C011F06E9A08956E980895882311F06F9A2D
S11301D008956F98089580E00E94DF00BA9ABB9852
S11301E0B99AB89A6C9A80E00E94E5006B986A9874
S11301F081E00E94DF00709A8DB18C7F8DB90895E3
S1130200282F9FB7F894E82FFF27EB5CFE4F8081DF
S11302108F3F81F4E0910A02E21771F40BC020933E
S1130220FD0104C0FF27EB5CFE4F208320930A02EC
S113023020E007C025E005C08091FD018F3F91F7C4
S1130240EECF892F99278FBF822F992708951F9367
S1130250182F81E00E94DF001FB9779BFECF8FB17A
S113026099271F9108958F929F92AF92BF92CF9238
S1130270DF92EF92FF920F931F93CF93DF938FB789
S1130280F8949927C0900502D090060280908C01C2
S113029090908D01C0916D01D0916E0120911A0151
S11302A030911B01EAE0AE2EB12CAC0EBD1E2A1516
S11302B03B0508F459018FBF7401EC0EFD1E860145
S11302C00C0F1D1F14C0C114D10419F0F801808152
S11302D001C080E00E9427018114910411F0F7010C
S11302E0808321960894E11CF11C0F5F1F4FC50108
S11302F00197C817D90738F381E00E94E5009FB73A
S1130300F894C114D10431F0CC0EDD1EF6018081C5
S11303108FB901C01FB8D0936E01C0936D01892FAE
S113032099278FBF80E090E0DF91CF911F910F91CB
S1130330FF90EF90DF90CF90BF90AF909F908F9001
S113034008952FB7F894332750931B0140931A0153
S1130350909306028093050270938D0160938C0143
S113036010926E0110926D012FBF452B29F08FB1B1
S11303700E9433019927089589E00E94000180E0DA
S113038090E008958FB7F8949927109295018FBF44
S11303900895EF920F931F93AE2D99E0899FF0017A
S11303A01124EF58FE4F4083518362837383048387
S11303B0158326833783A17080858E7F8A2B826084
S11303C0808781E00E9400011F910F91EF900895B2
S11303D07FB7F89462B720911D0130911E014091BE
S11303E01F015091200106B601FE0FC081B792B7DC
S11303F0280F311D411D511D2F5F3F4F4F4F5F4F40
S1130400290F311D411D511D04C0260F311D411DF1
S1130410511D872F99278FBFCA01B901089580E81C
S11304208093330110924C01109200021092FC014F
S1130430109248010895CF93DF93FC0115A6DC01C7
S11304409E96ED011B821A82198280E886A7DF91AD
S1130450CF9108952F923F924F925F926F927F9225
S11304608F929F92AF92BF92CF92DF92EF92FF92C0
S11304700F931F93CF93DF93CDB7DEB728970FB6B3
S1130480F894DEBF0FBECDBF2090520130905301CF
S11304904090540150905501662477248824BEE48A
S11304A0AB2EA3E8BA2ECC24DD24EE24FF2400E0F6
S11304B010E0222D332D442D552D662D772D882DBA
S11304C090E00E94281529833A834B835C836D83D3
S11304D07E838F839887822E932EA42EB52E24019B
S11304E0350100E20E942616A22EB32EC42ED52E6C
S11304F0C301B20196958795779567956A0D7B1D23
S11305008C1D9D1D97FF05C09F776F5F7F4F8F4F99
S11305109F4F6093520170935301809354019093C1
S1130520550128960FB6F894DEBF0FBECDBFDF91FC
S1130530CF911F910F91FF90EF90DF90CF90BF90DC
S1130540AF909F908F907F906F905F904F903F906F
S11305502F9008958FB7F89460916F017091700196
S11305602CB53DB506B602FE04C06F5F7F4F2CB5B7
S11305703DB599278FBF88279927CB017727662711
S113058044275527622B732B842B952B0895EF92C8
S1130590FF920F931F930E94AA027B018C0120916A
S11305A05C0130915D0140915E0150915F01809149
S11305B0570190915801A0915901B0915A01820FAD
S11305C0931FA41FB51FE216F3060407150730F0A6
S11305D082179307A407B50758F005C0821793073D
S11305E0A407B507E0F5E816F9060A071B07B8F5EE
S11305F09C01AD012E193F09400B510B213060E8DD
S1130600360760E0460760E0560768F180E090E84E
S1130610A0E0B0E0E80EF91E0A1F1B1FE0925C0187
S1130620F0925D0100935E0110935F0180E090E819
S1130630AFEFBFEFE80EF91E0A1F1B1F2050304812
S11306404040504020935701309358014093590142
S113065050935A0120E030E840E050E014C020E01C
S113066030E040E050E080935C0190935D01A09302
S11306705E01B0935F0110925701109258011092DD
S1130680590110925A01A901B7012CB53DB5C90110
S11306908E199F0903968417950720F0B9016D5FA1
S11306A07F4F02C0640F751F6115710511F461E07D
S11306B070E0615070407BBD6ABD80E186BF87B742
S11306C0806187BF1F910F91FF90EF9008950F9362
S11306D01F930FB7F894112760935C0170935D0129
S11306E080935E0190935F012093570130935801EA
S11306F04093590150935A010E94C7020FBF1F91A2
S11307000F91089597B79F7D97BF90E296BF882376
S113071019F08EB5806402C08EB58F7B8EBD87B70D
S1130720806287BF80E090E00895DF92EF92FF92AD
S11307300F931F938FB7F894282F3327D22E91B796
S113074082B746B7981711F041FF02C02FBF6AC0A5
S113075080916C018823E1F10E94E801E0908F010F
S1130760F0909001009191011091920120912F013C
S11307703091300140913101509132016E197F095D
S1130780800B910B621773078407950720F0109272
S11307906C0171E01EC02E0D3F1D401F511F809142
S11307A01D0190911E01A0911F01B0912001281BF1
S11307B0390B4A0B5B0B273E31054105510540F4CB
S11307C0822F223010F070E005C070E082E002C099
S11307D070E086EE682F615000B601FCFDCF82B751
S11307E0681709F46F5F20911D0130911E0140913B
S11307F01F0150912001DA01C9010196A11DB11D0B
S1130800860F911DA11DB11D82179307A407B5077B
S113081010F4622F609561BFDFBE772319F080E08A
S11308200E9400011F910F91FF90EF90DF900895B7
S1130830AFB7F894BB27E1E0E0936C0160938F01BC
S113084070939001809391019093920120932F01D2
S1130850309330014093310150933201AFBF0E9475
S113086095030895AF92BF92CF92DF92EF92FF92D9
S11308700F931F93CF93DF93CDB7DEB728970FB6AF
S1130880F894DEBF0FBECDBF20E070E0E091000120
S1130890F091010132E14DE65CE46FE480910101E5
S11308A09E2F28960FB6F894DEBF0FBECDBFDF9102
S11308B0CF911F910F91FF90EF90DF90CF90BF9059
S11308C0AF9008951F920F920FB60F9211248F9339
S11308D083B783BF00B600FCFDCF8F910F900FBE8E
S11308E00F901F9018951F920F920FB60F9211241C
S11308F00F900FBE0F901F9018951F920F920FB676
S11309000F9211240F900FBE0F901F9018951F92F5
S11309100F920FB60F9211240F900FBE0F901F90DD
S113092018951F920F920FB60F9211240F900FBEBD
S11309300F901F9018951F920F920FB60F921124CB
S11309400F900FBE0F901F9018951F920F920FB625
S11309500F9211240F900FBE0F901F9018951F92A5
S11309600F920FB60F9211240F900FBE0F901F908D
S1130970189578941F920F920FB60F9211240F902E
S11309800FBE0F901F90189578941F920F920FB678
S11309900F9211240F900FBE0F901F90189578940A
S11309A01F920F920FB60F9211242F933F938F93A0
S11309B09F932FB7F894332780916F019091700122
S11309C001969093700180936F012FBF9F918F9137
S11309D03F912F910F900FBE0F901F9018951F926B
S11309E00F920FB60F9211242F933F934F935F935F
S11309F06F937F938F939F93AF93BF93EF93FF93E3
S1130A0083B783BF00B600FCFDCF81B79927019659
S1130A10AA27BB2720911D0130911E0140911F017F
S1130A2050912001280F391F4A1F5B1F20931D017D
S1130A3030931E0140931F015093200178940E942B
S1130A409503FF91EF91BF91AF919F918F917F910A
S1130A506F915F914F913F912F910F900FBE0F9027
S1130A601F9018950F931F93CF93DF93182F8FB771
S1130A70F894C82FDD270C2F61E080E00E94B400B9
S1130A80882321F0CFBF85E090E024C08091050148
S1130A908823A1F480911101823081F409C082E09D
S1130AA080931101109205010E94EB00B89AC0983E
S1130AB01093020180E00FBF99270CC080911101AF
S1130AC0882369F38FB7F8949927109293018FBF05
S1130AD081E0F1CFDF91CF911F910F910895AF92F3
S1130AE0BF92CF92DF92EF92FF920F931F93CF9317
S1130AF0DF935B016C01C0E0D0E0E1E7F1E06085E9
S1130B0061FF6FC02081318142815381E480F5808F
S1130B1006811781D601C501821B930BA40BB50B6B
S1130B208E159F05A007B10708F45BC060FF03C0E2
S1130B306D7F608708C02E0D3F1D401F511F20830D
S1130B40318342835383CC2321F0C13009F04FC059
S1130B5002C0AA984CC08091790181FF2AC0E0901C
S1130B607501F090760100917701109178010E944F
S1130B70E8019B01AC018091710190917201A091F7
S1130B807301B0917401281B390B4A0B5B0B2E15B2
S1130B903F054007510768F4E21AF30A040B150BEA
S1130BA089EEE81683E0F80680E0080780E018077D
S1130BB078F40E94E801AB01BC01E1E0EE2E08EEFE
S1130BC013E020E030E080E00E94C901A29AAA9AD2
S1130BD08FB7F89499272BB334E023272BBB8FBF0F
S1130BE006C021963996C330D10509F088CF81E03B
S1130BF00E940001DF91CF911F910F91FF90EF9020
S1130C00DF90CF90BF90AF9008950F931F93182F4C
S1130C100FB7F89461E080E00E94B400882371F576
S1130C2010930201809105018823A9F58091110197
S1130C30823089F588E00CC00E94EB00809111019C
S1130C40882349F481E080931101109249018AE0DC
S1130C500E9400012AC080915B018F3F31F5E09131
S1130C600401EE2311F11CC01092030104C0FF27FC
S1130C70E55AFE4F10821092040117C081E090E003
S1130C8002C0880F991F1A95E2F720911001282BB2
S1130C90209310010AC0809111018823E1F6CCCF82
S1130CA0809103018F3F19F7DFCF802F99278FBFE2
S1130CB080E090E01F910F9108951F9383E00E94BC
S1130CC032059927182F882319F083E00E9405061E
S1130CD0812F99271F910895CF92DF92EF92FF926F
S1130CE00F931F93CF93DF938C01F62E6A01E22EAC
S1130CF08FB7F894C82FDD2760E080E00E94CE0013
S1130D00882321F0CFBF80E090E01EC0CFBF0F0D3D
S1130D10111D802F80680E942701F82E16950795D3
S1130D20802F807C0E9427010E2D0AC0EE2DFF2704
S1130D30E01BF109EC0DFD1D80810E94270101508B
S1130D400023A1F78F2D9927DF91CF911F910F9148
S1130D50FF90EF90DF90CF900895CF93DF93CDB7BE
S1130D60DEB72C970FB6F894DEBF0FBECDBF8FB79A
S1130D70F894282FAE014F5F5F4FDA01E9E9F1E003
S1130D8088E001900D928150E1F780914D0190919E
S1130D904E018987892F99278A87809160019091D4
S1130DA061018B87892F99278C872FBF2CE060E006
S1130DB080E691E00E946C062C960FB6F894DEBF94
S1130DC00FBECDBFDF91CF9108951F93CF93DF93D3
S1130DD0182F8FB7F894C82FDD2760E080E00E94B9
S1130DE0CE00882321F0CFBF80E090E005C0CFBFC4
S1130DF0812F0E9427019927DF91CF911F91089598
S1130E00EF92FF920F931F93CF93DF93182F7B01E1
S1130E10042F8FB7F894C82FDD2760E080E00E948C
S1130E20CE00882321F0CFBF80E090E014C0CFBF74
S1130E301064812F992790936501809364010E9427
S1130E402701182F402F5527B70180E090E00E941A
S1130E50A101812F9927DF91CF911F910F91FF90CD
S1130E60EF900895C098609118017091190141E0C4
S1130E708FE30E940007089582E090E0909343017D
S1130E808093420181E080934C0120E030E0809126
S1130E900201843011F421E030E0232B29F484E0B2
S1130EA00E943205882319F40E943207089584E0D1
S1130EB00E94050608951F920F920FB60F921124F7
S1130EC02F933F934F935F936F937F938F939F934E
S1130ED0AF93BF93EF93FF938091420190914301AD
S1130EE0019749F482E090E090934301809342019A
S1130EF00E943C0705C0809148018F5F80934801A0
S1130F00FF91EF91BF91AF919F918F917F916F91DD
S1130F105F914F913F912F910F900FBE0F901F90B3
S1130F2018951F9380911001882309F04BC01091EC
S1130F3002011F3F09F046C060E00E94CE008823F2
S1130F4009F440C081E08093A20180913401882398
S1130F50E1F11092A20185E090E045C0923069F57C
S1130F60C09A8091030120E030E08F3F11F421E02A
S1130F7030E0232BE9F4109305018F3F19F42FEF90
S1130F8030E00DC0282F3327F901E55AFE4F808148
S1130F90809303018F3F11F4109304011083209375
S1130FA0490181E0809311018AE00E94000105C09B
S1130FB0109305011092110111C080911101882331
S1130FC069F00FC081E090E00EC08091050190911E
S1130FD01101882319F2923021F0EFCF80E00E94B2
S1130FE0DF0080E090E01F9108951F93CF93DF937B
S1130FF09FB7F894C92FDD271C2F909102019817F1
S113100021F0CFBF81E090E03AC08FEF80930201DE
S1131010309110013323F1F48FB7F894992710928B
S113102093018FBF0E949107CFBF11C0209302018B
S113103081E090E002C0880F991F4A95E2F78095FD
S113104038233093100188E00E9400011FBF80E024
S113105090E015C080E065E0E32FFF270E94A91609
S1131060292F492F5527CF01042E02C09595879526
S11310700A94E2F780FDDACF822F8F5FEFCFDF9102
S1131080CF911F9108951F93CF93DF938FB7F89457
S1131090C82FDD271C2F8091420190914301892B99
S11310A029F484E00E94F507CFBF1EC010924C01C2
S11310B080914801882311F0B79904C00E9908C0A3
S11310C0882319F08150809348010E943C070BC08B
S11310D081E090E090934301809342011092480193
S11310E084E00E94F5071FBFDF91CF911F910895FF
S11310F00E940F02C09AC09888E00E94E50688E02A
S11311000E94E506C09A84E00E94F5070E94430805
S11311100895FF920F931F93CF93DF93F82E8B01C3
S11311208FB7F894C82FDD2760E080E00E94CE00DE
S1131130882321F0CFBF80E090E00CC0CFBF8F2D7B
S11311400E942701812F99270E942701802F0E9446
S113115027019927DF91CF911F910F91FF90089557
S11311601F931FB7F89480914701882319F460E016
S113117070E009C060E080910402882309F461E012
S113118081E06827772780914F01882319F480E054
S113119090E00AC090E080919801882309F491E0DE
S11311A081E09827892F9927762F6627770F770F65
S11311B0770F24E0880F991F2A95E1F7826E9262D7
S11311C0682B792B81E10E948908812F99278FBF91
S11311D01F9108958FB7F89499276091A1018FBF4B
S11311E085E0689FB0011124625D7E4F706488E1E0
S11311F00E9489080895EF92FF921F93CF93DF9383
S1131200E0905001F0905101F70182A59927182F21
S1131210882309F41FE1C09880914601811749F0A1
S1131220612F77276F717070606E706885E10E941E
S1131230890810934601F70110818FB7F894C82FDD
S1131240DD2760E080E00E94CE00882311F0CFBF4C
S113125012C0CFBF8EE390E0909365018093640148
S11312608EE30E9427011150412F552760E070E062
S1131270C7010E94A101DF91CF911F91FF90EF90D0
S113128008951F93182F81E090E0909313018093A9
S11312901201109234010E9491078FB7F894992794
S11312A010930C018FBF84E00E9400011F910895E8
S11312B061E081E00E94B4008823E9F48FB7F894D8
S11312C0282F332780910D0190910E01892B11F065
S11312D02FBF20C081E090E090930E0180930D0118
S11312E02FBFDD9A0E94AA0224E130E040E050E0E2
S11312F00E9467030FC062E081E00E94CE00882351
S113130019F089E090E0089561E081E00E94CE0048
S1131310882319F080E090E0089585E090E0089536
S1131320CF92DF92EF92FF920F931F93CFB6F89470
S1131330DD240E942A02DC01CB0166E470E00E94F5
S1131340B5164BE0E42EF12CE80EF91EF0920802DB
S1131350E09207020E94AA0200271127A801970120
S11313600E946703CFBE1F910F91FF90EF90DF9013
S1131370CF9008951F93CF93DF938FB7F894C82F1E
S1131380DD271C2F80911201909113010897C9F455
S113139089E00E94E50683E00E94F507C09A81E097
S11313A090E090931301809312018FB7F8949927DA
S11313B023E020930C018FBF84E00E940001CFBF83
S11313C030C0C09880910B02882311F085E001C0E1
S11313D084E00E94E50683FD09C080E00E94E506E2
S11313E083FF04C085E090E020E003C083E090E048
S11313F021E09093130180931201C09A1FBF22230E
S113140041F010921C0183E00E94F5070E949009AC
S113141008C00E94AA0220E431E040E050E00E94AB
S11314206703DF91CF911F91089578941F920F92D3
S11314300FB60F9211241F932F933F934F935F93F3
S11314406F937F938F939F93AF93BF93EF93FF9388
S113145087B78F7E87BF78941FB7F8948091570120
S113146090915801A0915901B0915A010097A1059A
S1131470B10509F051C0809112019091130185309A
S1131480910561F18630910530F48330910549F07E
S1131490049781F51AC087309105F1F0089751F54A
S11314A014C0869B0FC084E090E090931301809356
S11314B012010E94AA0227E030E040E050E00E94BE
S11314C0670318C00E94900915C00E945D06882316
S11314D089F40E94BA090EC080E00AC089E00E9423
S11314E0E50681E00E94820383E00E94F50787E01D
S11314F00E94410980910D0190910E01019771F4B0
S113150082E090E090930E0180930D01DE98DE9AC4
S113151080E00E94050602C00E94C702812F99271D
S11315208FBFFF91EF91BF91AF919F918F917F9169
S11315306F915F914F913F912F911F910F900FBE2B
S11315400F901F901895EF92FF920F931F93CF93D4
S1131550DF938B01809164019091650186FF40C106
S11315608F7B8F3309F08EC1C0911801D09119017E
S113157058815093440180914201909143018530F8
S1131580910509F443C08630910509F48AC0029795
S113159009F01FC185E090E09093430180934201DC
S11315A040913301852F99270196242F332728173B
S11315B039074CF1B79906C00E9904C0451B415038
S11315C040933301409144014A32E8F44423A1F0AA
S11315D0BE016F5F7F4F483018F047E050E007C00E
S11315E086E090E09093430180934201552780E088
S11315F090E00E94A10146C110924C01C09A84E07F
S11316000E94F507E3C00E9478083CC186E090E0A0
S1131610909343018093420180914F01882309F400
S113162039C0809198018823A9F5898185FF32C04A
S11316308F814E812FB7F8943327609160017091A8
S113164061012FBF9927982F88275527842B952B25
S11316508617970759F08F812E819927982F88270D
S11316603327822B932B8F5F9F4FA1F4898187703F
S1131670813081F4C09AC0988AE00E94E506C09A3D
S1131680C0984091440147502896BE018FE30E94C0
S11316900007F8C040914401475055272896BE01E1
S11316A0A6CFC09A80914801882339F484E00E942F
S11316B0F50780914801882311F0B7990AC00E9B61
S11316C008C09091FC01992321F0809144018B3052
S11316D038F480911801909119010E941B023DC0B9
S11316E0913001F5E0910002FF27EE0FFF1FEE0F8E
S11316F0FF1FE855FE4F2081318142815381E091E3
S11317001801F091190121ABBB27A52F942F832F2A
S113171080ABCA01AA27BB2787A7252F33274427D5
S1131720552726A7809100029927019668E070E06A
S11317300E94C916809300028091FC01815080931D
S1131740FC01882351F080911801909119010E94A5
S11317501B02109200021092FC0180914401FE01D0
S1131760E80FF11D808187FF31C0012B79F1698178
S11317706770E0911801F0911901623019F5A09198
S11317805001B0915101109709F18091120190918B
S113179013010797D9F4ED019B8183819817B1F464
S11317A087B78F7E87BF908181E08CA7E90FF11DF9
S11317B08291319688A780818F7789A780E00E94E3
S11317C0410904C0613011F48BE02AC00E9443082F
S11317D059C010924C01C09A84E00E94F50752C08F
S11317E08E3309F04FC0C09A809112019091130179
S11317F00897C9F4C09889E00E94E506C09A83E07E
S11318000E94F50781E090E0909313018093120108
S11318108FB7F894992723E020930C018FBF84E0BD
S11318200E9400012FC080910B02882349F484E0B8
S113183090E090931301809312010E94BA0922C090
S113184083E00E94F50783E090E090931301809376
S113185012010E942A02DC01CB0166E371E00E94BE
S1131860B5165BE0E52EF12CE80EF91EF0922E0180
S1131870E0922D010E94AA0200271127A8019701D6
S11318800E946703DF91CF911F910F91FF90EF901A
S113189008951F920F920FB60F9211242F933F9326
S11318A04F935F936F937F938F939F93AF93BF9364
S11318B0EF93FF932FB1E0918C01F0918D0130975C
S11318C039F080916D0190916E01E80FF91F20832A
S11318D080916D0190916E01019690936E018093B9
S11318E06D0180E00E94E50040911A0150911B01B6
S11318F080916D0190916E018417950718F40E94F0
S113190033011CC060918C0170918D01809105029E
S11319109091060210928D0110928C011092060291
S11319201092050210921B0110921A0110926E017E
S113193010926D012FB120E00E94A30AFF91EF9154
S1131940BF91AF919F918F917F916F915F914F91D3
S11319503F912F910F900FBE0F901F901895AF924B
S1131960BF92CF92DF92EF92FF920F931F93CF9388
S1131970DF93CDB7DEB7A8970FB6F894DEBF0FBEDE
S1131980CDBF863009F469C1873090F4823009F400
S1131990B0C0833030F4882309F1813009F0D7C412
S11319A050C0843009F4F7C0853008F03AC1ECC067
S11319B0893009F449C28A3038F4873009F453C1B4
S11319C0883009F0C4C487C18B3009F477C28B30E6
S11319D008F45EC28C3009F0BAC41AC4809145017F
S11319E0882361F52091A4013091A5014091A601BD
S11319F05091A701EFB7F894FF2760918F01709180
S1131A0090018091910190919201E0902F01F090CA
S1131A10300100913101109132016E0D7F1D801F44
S1131A20911FEFBF2093A4013093A5014093A60119
S1131A305093A701109245010E9418040E94E801E6
S1131A4043C00E94E8015B016C018FB7F8949927A9
S1131A5010926C018FBF5FEFE52E5FEFF52E5FEF05
S1131A60052F5FE7152F60E0E1E7F1E0808581FF56
S1131A701CC080819181A281B381A6019501281B9C
S1131A80390B4A0B5B0BDA01C9012481358146818C
S1131A905781281B390B4A0B5B0B2E153F0540075A
S1131AA051071CF479018A0161E0399631E0EC3880
S1131AB0F307E1F6662309F44AC41E141F04100652
S1131AC011062CF0C601B5010E946F0540C4E092D6
S1131AD0A401F092A5010093A6011093A70181E04F
S1131AE080934501A8019701C601B5010E9418041D
S1131AF02EC40FB7F894112781E00E94820341E0BD
S1131B00E42EF12CF0921301E092120110921401D0
S1131B1010923401109246010FBF0FB7F8941127A9
S1131B200E940F02F0924301E092420110924C0194
S1131B3089B78F7B89BF80E488BF8AB780628ABFF8
S1131B408AB78F7E8ABF89B7806489BF0FBF8FB77A
S1131B50F894082F112780910D0190910E0104979C
S1131B6019F483E00E94E5060FBF0FB7F89411271C
S1131B70C09A80E00E94F5070FBF8FB7F8949927A9
S1131B8022E02093940105C08FB7F894992710920E
S1131B9094018FBFDCC38FB7F89499278FBF63E09C
S1131BA081E00E94CE00882359F10FB7F8941127E1
S1131BB0109213011092120187B78F7E87BF87B7E7
S1131BC08F7D87BF83E00E94F507C09A0FBF0FB7D0
S1131BD0F894112710924301109242010E940F02BF
S1131BE0C09A89B78F7B89BF0FBF10920E011092E4
S1131BF00D01DE98DD98DE9A83E00E94000107C0A3
S1131C008FB7F894992722E0209394018FBF0E9404
S1131C10C2018091010290910202892B09F097C3BD
S1131C2093C38FB7F894282F3327122F809109027A
S1131C30882309F071C381E08093090280910D012A
S1131C4090910E01049721F481E00E94050603C0DF
S1131C5086E00E9400011FBF7AC38FB7F8949927CA
S1131C601092090296CF8FB7F894282F33278091CA
S1131C700F01882309F050C32FBF80B3992736E0A2
S1131C80969587953A95E1F7182F11709091620116
S1131C90809163018917D9F01917C9F484E090E0A1
S1131CA090930E0180930D018FB7F894992721E04A
S1131CB020930F018FBF60E070E08DE10E948908DE
S1131CC00E94AD06C09AC09882E00E940001109361
S1131CD0630187E0F0C08FB7F8949927109102014F
S1131CE08FBF123009F465C0133030F4112359F05A
S1131CF0113009F02CC348C0133009F474C01430F7
S1131D0009F025C39EC0C0988FB7F894082F1127F7
S1131D1080910D0190910E01029709F0B7C083E004
S1131D2090E090930E0180930D0168E170E08DE1E5
S1131D300E94890881E08093620110920F0180B3B0
S1131D40992726E0969587952A95E1F781709070FA
S1131D508093630187E00E94000181E00E94E50610
S1131D606FE772E08CE10E9489080E94EA080E94F1
S1131D70B00866E57AE287E10E9489086FEF70E8AF
S1131D8085E10E94890882C0C09886E00E94E50629
S1131D900E94EA080E94B0080E94AD06C09AC0984A
S1131DA083E00E94E506C09A81E00E94F50786E080
S1131DB082C0C0988FB7F894082F112760E080E0A4
S1131DC00E94CE00882311F00FBF0AC00FBF83E525
S1131DD00E94270180E00E94270180E00E942701E1
S1131DE0C09A82E02BC08FB7F894992720911201F2
S1131DF08FBF243029F0283031F02230F1F4A1C211
S1131E000E94BA09A4C2C09889E00E94E506C09A5B
S1131E1083E00E94F5078FB7F894992721E030E01A
S1131E2030931301209312018FBF8FB7F894992731
S1131E3010930C018FBF84E03EC083E00E94F5073D
S1131E4086C20E94320783C20FB7F89411274091CB
S1131E501A0150911B0160918C0170918D01809148
S1131E6005029091060210928D0110928C0110923D
S1131E7006021092050210921B0110921A01109290
S1131E806E0110926D0120E00E94A30A0FBF5FC291
S1131E902FB7F8943327809149018093050182E09C
S1131EA0809311012FBF80910501882309F04FC24F
S1131EB0B89AC09888E00E94000149C2A091180114
S1131EC0B09119011C919D01210F311DF9018081EF
S1131ED0881F8827881FFD0183A7F90180818F77D8
S1131EE0FD0181A721503040F9018081FD0180A7C7
S1131EF0A0911801B0911901FD0132818FB7F894B6
S1131F009927209147018FBF222309F490C0832F82
S1131F1099279695879596958795837090708230CA
S1131F20910541F5878146812FB7F8943327609155
S1131F306001709161012FBF9927982F8827552739
S1131F40842B952B8617970719F481E090E06CC0D9
S1131F50FD018781268140E050E09927982F88274A
S1131F603327822B932B8F5F9F4F11F441E050E076
S1131F70CA015AC0039709F042C19E012F5F3F4F27
S1131F8049E951E088E0FA010190AF01F9010192B9
S1131F909F018150C1F79E012F5D3F4FAE014F5FFE
S1131FA05F4F88E0FA010190AF01F90101929F01AE
S1131FB08150C1F79E01275F3F4FAE014F5D5F4FD8
S1131FC088E0FA010190AF01F90101929F0181506B
S1131FD0C1F79E012F5E3F4FAE01475F5F4F88E020
S1131FE0FA010190AF01F90101929F018150C1F7FB
S1131FF09E01275E3F4FAE014F5E5F4F88E0FA01BE
S11320000190AF01F90101929F018150C1F748E0AD
S113201050E0BE01675E7F4FCD0106960E943217E5
S1132020892B09F0ECC003C0882309F4E8C01D30F3
S113203008F4E5C0C0901801D0901901F60122817E
S1132040822F992736E0969587953A95E1F703977D
S113205019F468E070E002C062E070E0822F992712
S1132060969587959695879583709070039719F444
S113207088E090E002C082E090E026E030E0C20E0A
S1132080D31E40E050E020E030E0F601E80FF91FF5
S11320908AEF9FEFC80ED91E05C08191480F511DCC
S11320A02F5F3F4F26173707C4F3F60163818FEF85
S11320B0809303028FB7F894782F20E030E0E1E2B8
S11320C0F1E0808191818417950731F4828186172C
S11320D009F488C0209303022F5F3F4F33962430C6
S11320E0310579F77FBF909103023FB7F8949F3F82
S11320F021F080911501891799F420911501822FFF
S11321009927FC01EE0FFF1FE80FF91FEF5DFE4F4B
S11321105183408362832F5F2370209315010CC089
S1132120892F9927FC01EE0FFF1FE80FF91FEF5DC0
S1132130FE4F518340836283832F99278FBF0FB74C
S1132140F8941127C6010E947000FC0190810FBF12
S1132150F60183A5882309F44EC09F3309F04BC0D0
S1132160878146812FB7F8943327609106017091D7
S113217007012FBF9927982F88275527842B952B44
S11321808617970759F0878126819927982F8827E2
S11321903327822B932B8F5F9F4F69F5F60183853D
S11321A0863649F52FB7F89433278BB392E0892705
S11321B08BBB2FBF848525859927982F88273327A4
S11321C0822B932B8130910579F40E94E801AB01B5
S11321D0BC01EE2400ED17E020E030E081E00E9435
S11321E0C90109C07FBF07C0892B29F480918201EE
S11321F08D7F80938201D0921901C09218018FB70C
S1132200F894992710924C018FBF0E9443089FC0F5
S11322109091560180910901981709F498C0909300
S11322200901992309F090C0E0901601F09017017C
S11322300FB7F8941127C7010E947000FC018FE3C7
S113224080830FBF109202021092010261E082E0CB
S11322500E94B400882309F077C08091A3018F5FA6
S11322608093A3018150F70183838FB7F894082FDB
S1132270112762E081E00E94CE00882321F40FBF81
S11322800E94C20161C08FB7F894992724E020937B
S113229094018FBFF0926B01E0926A010FBFD701E6
S11322A01196FD018181F70121819927982F8827B3
S11322B03327822B932B80729C7C8183892F9927CF
S11322C0FD018183F7012181982F88273327216419
S11322D0822B932B8183892F9927FD018183F70119
S11322E014A610A611A611AA10AA17A680E886A7FC
S11322F061E06093970140916A0150916B018FB73F
S1132300F894282F3327809112019091130188307B
S1132310910511F0019711F02FBF19C082E090E0F0
S1132320909313018093120160930B025093510117
S11323304093500110921C012FBF0E945D06882318
S113234031F40E94FB0803C08FEF80930901A89623
S11323500FB6F894DEBF0FBECDBFDF91CF911F91B2
S11323600F91FF90EF90DF90CF90BF90AF900895C2
S11323708091FD018F3FB1F0282F3327F901EB5CE9
S1132380FE4F80818093FD018F3F11F480930A02F8
S11323908FEF80832F3F31F0822F0E94AF0C81E0BA
S11323A090E0089580E090E008951F93CF93DF9329
S11323B0CDB7DEB7E0970FB6F894DEBF0FBECDBF42
S11323C01FB7F8944DE050E06FEF70E085E391E0C3
S11323D00E943F178FEF8093FD0180930A0281E0F2
S11323E08EBD88E080BF83E083BF8CB59DB54AE78E
S11323F02CB53DB52817390708F44150442311F092
S1132400C901F6CF92B782B78917E9F32CB53DB568
S113241092B782B78917E9F38CB59DB5821B930BEC
S1132420409665E0969587956A95E1F79093FF014C
S11324308093FE0113BE83B78EBD8EB580BF12BEDE
S11324401DBC1CBC8FEF86BF86B780937C0080B711
S1132450992787709070892BD1F7D29AD19AD09A04
S1132460DA9AD99AD89A15BA8FEF84BBD498DC98A3
S11324701DBC1CBC87B7846087BF8EB5887F846011
S11324808EBD0E94B8118823E1F78FEF80934A0133
S1132490E1E2F1E08FEF9FEF918380831282339624
S11324A021E0ED32F207C1F70E942A026093A301F2
S11324B080910001909101010196AA27BB27809386
S11324C0520190935301A0935401B093550188ECA9
S11324D091E090931901809318018E98B89A8C9882
S11324E08FEF80935B0110929301109294011092EC
S11324F0950110929601B89AD69AD59A8FB7F89406
S1132500992720910601309107018FBF3093610113
S1132510209360010E94320429A73AA74BA75CA725
S11325206DA77EA78FA798ABDE019196FE01B996A1
S113253088E001900D928150E1F7DE015196FE0191
S1132540B19688E001900D928150E1F7DE01599631
S1132550FE01719688E001900D928150E1F7A9E99E
S1132560B1E0FE01799688E001900D928150E1F787
S113257080910801992790934E0180934D018FE13A
S113258080938E018AE18093A1010E94320429A7DD
S11325903AA74BA75CA76DA77EA78FA798ABDE01D0
S11325A09196FE01B99688E001900D928150E1F771
S11325B0DE011196FE01B19688E001900D928150E2
S11325C0E1F7DE011996FE01319688E001900D9243
S11325D08150E1F7A9E9B1E0FE01399688E0019064
S11325E00D928150E1F7A9E9B1E0FD0137969C9184
S11325F080818D939083319781E0EC39F807B9F7A6
S113260081E0809347011092040280934F0110925D
S1132610980180B7886080BF8BE083BF86EE81BF5E
S113262087B7826087BF0E9495030E94B8118823F0
S1132630E1F7812F99278FBF78940E9458098FB7AB
S1132640F894482F55274BC087B79927837090700B
S1132650892B19F4E5E0F0E013C080B7992787705F
S11326609070892BD1F781B792B7891B8C3030F0E9
S113267082B7853F18F4E3E0F0E002C0E2E0F0E066
S113268087B7887BC1F480917D008B7FA1F46E991C
S113269012C08AB190919A00892B887161F480915B
S11326A0740082FD08C0379B03C081E090E005C040
S11326B085E090E002C080E090E025B78E1708F432
S11326C0E82FFF27E457FF4FE491237E2062E22B9B
S11326D0E5BF78948895F89485B78F7D85BF809100
S11326E0FD018F3F09F4B0CF282F3327F901EB5CAC
S11326F0FE4F80818093FD018F3F11F480930A0285
S11327008FEF80832F3F09F49FCF4FBF822F0E940A
S1132710AF0C95CF78941F920F920FB60F9211249D
S11327202F923F924F925F926F927F928F929F92DD
S1132730AF92BF92CF92DF92EF92FF920F931F93CB
S11327402F933F934F935F936F937F938F939F93B5
S1132750AF93BF93CF93DF93EF93FF93C6B5D7B5F2
S11327608FB7F894282E0E94AA029B012C1B3D0BC4
S1132770442755272B013C01421A530A640A750A5F
S113278080911201909113018530910521F00697F3
S113279009F0E0C0BFC086E090E0909313018093FD
S11327A0120131E0332E30924B011092140180E07B
S11327B00E948203E0915001F091510141AABB278C
S11327C0A72D962D852D80ABC301AA27BB2787A7EC
S11327D0872D9927AA27BB2786A7E0915001F0915E
S11327E0510185A5882309F484C060816550772749
S11327F04F01860E971EF4012081E1808281A3801F
S11328009927AA27BB27BA2FA92F982F88273327C0
S113281044275527522F442733272227FF240027F4
S113282011278701FF24EE242E293F29402B512B09
S1132830BB24CC24DD242A293B294C295D29822B65
S1132840932BA42BB52B84199509A609B709838367
S1132850292F3A2F4B2F552722839D014427552793
S113286021838B2F9927AA27BB278083C09824E034
S1132870A40180E090E00E946C06C09AF4012081DB
S1132880E1808281A3809927AA27BB27BA2FA92F89
S1132890982F8827332744275527522F4427332737
S11328A02227FF24002711278701FF24EE242E2945
S11328B03F29402B512BBB24CC24DD242A293B293E
S11328C04C295D29822B932BA42BB52B840D951DAC
S11328D0A61DB71D8383292F3A2F4B2F55272283FB
S11328E09D014427552721838B2F9927AA27BB278E
S11328F08083E0915001F0915101818185FF02C0F4
S11329003092340183E00E94F50787B78F7E87BF3A
S113291084997AC010924B0181E00E948203E09175
S11329205001F0915101818185FF0FC087E090E053
S113293090931301809312010E94AA0220E031E0D7
S113294040E050E00E94670303C080E00E94410918
S1132950849B5AC080911401882391F580914B0186
S1132960882371F511E010934B010E94820380B318
S11329702091FC01283098F4E0910002E20FFF2737
S1132980E770F070EE0FFF1FEE0FFF1FE855FE4FCC
S113299040825182628273822F5F2093FC011093E4
S11329A01401D0936701C093660184992DC09927BF
S11329B074E0969587957A95E1F7182F117001C008
S11329C010E080914B018130F9F410924B010E9488
S11329D08203109214011123B9F48091660190913D
S11329E06701C81BD90B2A9778F48091FC018823CE
S11329F019F081508093FC01809150019091510114
S1132A00009711F00E941B022FBEFF91EF91DF91FE
S1132A10CF91BF91AF919F918F917F916F915F9172
S1132A204F913F912F911F910F91FF90EF90DF9065
S1132A30CF90BF90AF909F908F907F906F905F905A
S1132A404F903F902F900F900FBE0F901F901895AE
S1132A50ACE2B0E0EEE2F5E10C94FB16222E332E4C
S1132A60442E552E662E772E882E992EFE013196F1
S1132A70A8E01192AA95E9F729823A824B825C82F6
S1132A806D827E828F829886FE013996B8E011921B
S1132A90BA95E9F7A986BA86CB86DC86ED86FE86EA
S1132AA00F87188B89819A81AB81BC8189A79AA7EA
S1132AB0ABA7BCA77C018D018FEF9FEFA0E0B0E036
S1132AC0E822F9220A231B2389A59AA5ABA5BCA554
S1132AD01D014424552489859A85AB85BC858DA325
S1132AE09EA3AFA3B8A75C016D018FEF9FEFA0E099
S1132AF0B0E0A822B922CA22DB228DA19EA1AFA1F7
S1132B00B8A53D0188249924C801B701A6019501FF
S1132B100E94DC1669A37AA38BA39CA3C801B70106
S1132B20A40193010E94DC167B018C01C201B10156
S1132B30A60195010E94DC165B016C01C201B10182
S1132B40A40193010E94DC163B014C01EA0CFB1C1E
S1132B500C1D1D1D89A19AA1ABA1BCA19D014427F7
S1132B6055272E0D3F1D401F511F2A153B054C05AF
S1132B705D0540F480E090E0A1E0B0E0680E791ECD
S1132B808A1E9B1ECA01AA27BB27860D971DA81D56
S1132B90B91D8D8F9E8FAF8FB8A3A901332722272C
S1132BA089A19AA1ABA1BCA1A070B070280F391F54
S1132BB04A1F5B1F298F3A8F4B8F5C8FA98CBA8C6D
S1132BC0CB8CDC8CED8CFE8C0F8D18A1FE017196E4
S1132BD098E011929A95E9F7ED8AFE8A0F8B188F87
S1132BE02D813E814F8158856DA17EA18FA198A52D
S1132BF00E94DC163B014C012D853E854F8558898A
S1132C0069A57AA58BA59CA50E94DC162D893E8911
S1132C104F89588D260F371F481F591F260D371D02
S1132C20481D591D2D8B3E8B4F8B588F6D887E8888
S1132C308F88988C2A2D3B2D4C2D5D2D662D772D5C
S1132C40882D992DE2E1AC960C941717A0E1B0E021
S1132C50ECE2F6E10C94FB16222E332E442E552E74
S1132C60662E772E882E992E002309F466C088E0FC
S1132C70FE01319611928A95E9F729833A834B83B1
S1132C805C836D837E838F829887E0E2E01B1E164F
S1132C90CCF52D813E814F815885602F772767FDC4
S1132CA07095DA01C901062E04C0B695A7959795CB
S1132CB087950A94D2F78D879E87AF87B88B04C017
S1132CC0220F331F441F551FEA95D2F789819A8139
S1132CD0AB81BC8104C0B695A795979587956A95F5
S1132CE0D2F7282B392B4A2B5B2B29873A874B8722
S1132CF05C8729843A844B845C846D847E848F84CD
S1132D0098881BC01D861E861F86188A2E2F33277F
S1132D1027FD3095309521953F4F8D819E81AF8160
S1132D20B88504C0B695A795979587952A95D2F747
S1132D3089879A87AB87BC87DCCF222D332D442D1E
S1132D40552D662D772D882D992DE2E160960C94F2
S1132D501717991B79E004C0991F961708F0961B62
S1132D60881F7A95C9F780950895AA1BBB1B51E16A
S1132D7007C0AA1FBB1FA617B70710F0A61BB70BE7
S1132D80881F991F5A95A9F780959095BC01CD018C
S1132D90089597FB092E07260AD077FD04D0E5DFB6
S1132DA006D000201AF4709561957F4F0895F6F7C8
S1132DB0909581959F4F0895629FD001739FF00174
S1132DC0829FE00DF11D649FE00DF11D929FF00DB7
S1132DD0839FF00D749FF00D659FF00D9927729FEE
S1132DE0B00DE11DF91F639FB00DE11DF91FBD0179
S1132DF0CF01112408952F923F924F925F926F92C8
S1132E007F928F929F92AF92BF92CF92DF92EF9276
S1132E10FF920F931F93CF93DF93CDB7DEB7CA1BF7
S1132E20DB0B0FB6F894DEBF0FBECDBF09942A8822
S1132E30398848885F846E847D848C849B84AA84CA
S1132E40B984C884DF80EE80FD800C811B81AA8157
S1132E50B981CE0FD11D0FB6F894DEBF0FBECDBF22
S1132E60ED010895FB01DC0104C08D9101908019EE
S1132E7021F441505040C8F7881B990B0895DC0198
S1112E8001C06D9341505040E0F70895FFCF1C
S10F2E8E0100FFFFFFFF010022FFFFFF17
S9030000FC
